{
  "contractName": "NFTBasicV2",
  "abi": [
    {
      "inputs": [],
      "stateMutability": "nonpayable",
      "type": "constructor"
    },
    {
      "anonymous": false,
      "inputs": [
        {
          "indexed": true,
          "internalType": "address",
          "name": "owner",
          "type": "address"
        },
        {
          "indexed": true,
          "internalType": "address",
          "name": "approved",
          "type": "address"
        },
        {
          "indexed": true,
          "internalType": "uint256",
          "name": "tokenId",
          "type": "uint256"
        }
      ],
      "name": "Approval",
      "type": "event"
    },
    {
      "anonymous": false,
      "inputs": [
        {
          "indexed": true,
          "internalType": "address",
          "name": "owner",
          "type": "address"
        },
        {
          "indexed": true,
          "internalType": "address",
          "name": "operator",
          "type": "address"
        },
        {
          "indexed": false,
          "internalType": "bool",
          "name": "approved",
          "type": "bool"
        }
      ],
      "name": "ApprovalForAll",
      "type": "event"
    },
    {
      "anonymous": false,
      "inputs": [
        {
          "indexed": false,
          "internalType": "uint256",
          "name": "coinIndex",
          "type": "uint256"
        },
        {
          "indexed": false,
          "internalType": "uint256",
          "name": "value",
          "type": "uint256"
        },
        {
          "indexed": false,
          "internalType": "address",
          "name": "fromAddress",
          "type": "address"
        }
      ],
      "name": "CoinBidEntered",
      "type": "event"
    },
    {
      "anonymous": false,
      "inputs": [
        {
          "indexed": false,
          "internalType": "uint256",
          "name": "coinIndex",
          "type": "uint256"
        },
        {
          "indexed": false,
          "internalType": "uint256",
          "name": "value",
          "type": "uint256"
        },
        {
          "indexed": false,
          "internalType": "address",
          "name": "fromAddress",
          "type": "address"
        }
      ],
      "name": "CoinBidWithdrawn",
      "type": "event"
    },
    {
      "anonymous": false,
      "inputs": [
        {
          "indexed": false,
          "internalType": "uint256",
          "name": "coinIndex",
          "type": "uint256"
        },
        {
          "indexed": false,
          "internalType": "uint256",
          "name": "value",
          "type": "uint256"
        },
        {
          "indexed": false,
          "internalType": "address",
          "name": "fromAddress",
          "type": "address"
        },
        {
          "indexed": false,
          "internalType": "address",
          "name": "toAddress",
          "type": "address"
        }
      ],
      "name": "CoinBought",
      "type": "event"
    },
    {
      "anonymous": false,
      "inputs": [
        {
          "indexed": false,
          "internalType": "uint256",
          "name": "coinIndex",
          "type": "uint256"
        }
      ],
      "name": "CoinNoMoreForSale",
      "type": "event"
    },
    {
      "anonymous": false,
      "inputs": [
        {
          "indexed": false,
          "internalType": "uint256",
          "name": "coinIndex",
          "type": "uint256"
        },
        {
          "indexed": false,
          "internalType": "uint256",
          "name": "minPrice",
          "type": "uint256"
        },
        {
          "indexed": false,
          "internalType": "address",
          "name": "toAddress",
          "type": "address"
        }
      ],
      "name": "CoinOffered",
      "type": "event"
    },
    {
      "anonymous": false,
      "inputs": [
        {
          "indexed": true,
          "internalType": "address",
          "name": "previousOwner",
          "type": "address"
        },
        {
          "indexed": true,
          "internalType": "address",
          "name": "newOwner",
          "type": "address"
        }
      ],
      "name": "OwnershipTransferred",
      "type": "event"
    },
    {
      "anonymous": false,
      "inputs": [
        {
          "indexed": true,
          "internalType": "address",
          "name": "from",
          "type": "address"
        },
        {
          "indexed": true,
          "internalType": "address",
          "name": "to",
          "type": "address"
        },
        {
          "indexed": true,
          "internalType": "uint256",
          "name": "tokenId",
          "type": "uint256"
        }
      ],
      "name": "Transfer",
      "type": "event"
    },
    {
      "inputs": [
        {
          "internalType": "address",
          "name": "to",
          "type": "address"
        },
        {
          "internalType": "uint256",
          "name": "tokenId",
          "type": "uint256"
        }
      ],
      "name": "approve",
      "outputs": [],
      "stateMutability": "nonpayable",
      "type": "function"
    },
    {
      "inputs": [
        {
          "internalType": "address",
          "name": "owner",
          "type": "address"
        }
      ],
      "name": "balanceOf",
      "outputs": [
        {
          "internalType": "uint256",
          "name": "",
          "type": "uint256"
        }
      ],
      "stateMutability": "view",
      "type": "function"
    },
    {
      "inputs": [],
      "name": "baseURI",
      "outputs": [
        {
          "internalType": "string",
          "name": "",
          "type": "string"
        }
      ],
      "stateMutability": "view",
      "type": "function"
    },
    {
      "inputs": [
        {
          "internalType": "uint256",
          "name": "",
          "type": "uint256"
        }
      ],
      "name": "coins",
      "outputs": [
        {
          "internalType": "address",
          "name": "owner",
          "type": "address"
        },
        {
          "internalType": "uint256",
          "name": "coinIndex",
          "type": "uint256"
        },
        {
          "internalType": "string",
          "name": "nameOfCoin",
          "type": "string"
        },
        {
          "internalType": "string",
          "name": "ipfsHash",
          "type": "string"
        },
        {
          "internalType": "bool",
          "name": "isForSale",
          "type": "bool"
        },
        {
          "internalType": "uint256",
          "name": "minValueOffer",
          "type": "uint256"
        },
        {
          "internalType": "address",
          "name": "onlySellTo",
          "type": "address"
        },
        {
          "internalType": "bool",
          "name": "hasBid",
          "type": "bool"
        },
        {
          "internalType": "address",
          "name": "bidder",
          "type": "address"
        },
        {
          "internalType": "uint256",
          "name": "valueBid",
          "type": "uint256"
        }
      ],
      "stateMutability": "view",
      "type": "function"
    },
    {
      "inputs": [
        {
          "internalType": "uint256",
          "name": "tokenId",
          "type": "uint256"
        }
      ],
      "name": "getApproved",
      "outputs": [
        {
          "internalType": "address",
          "name": "",
          "type": "address"
        }
      ],
      "stateMutability": "view",
      "type": "function"
    },
    {
      "inputs": [
        {
          "internalType": "address",
          "name": "owner",
          "type": "address"
        },
        {
          "internalType": "address",
          "name": "operator",
          "type": "address"
        }
      ],
      "name": "isApprovedForAll",
      "outputs": [
        {
          "internalType": "bool",
          "name": "",
          "type": "bool"
        }
      ],
      "stateMutability": "view",
      "type": "function"
    },
    {
      "inputs": [],
      "name": "name",
      "outputs": [
        {
          "internalType": "string",
          "name": "",
          "type": "string"
        }
      ],
      "stateMutability": "view",
      "type": "function"
    },
    {
      "inputs": [],
      "name": "owner",
      "outputs": [
        {
          "internalType": "address",
          "name": "",
          "type": "address"
        }
      ],
      "stateMutability": "view",
      "type": "function"
    },
    {
      "inputs": [
        {
          "internalType": "uint256",
          "name": "tokenId",
          "type": "uint256"
        }
      ],
      "name": "ownerOf",
      "outputs": [
        {
          "internalType": "address",
          "name": "",
          "type": "address"
        }
      ],
      "stateMutability": "view",
      "type": "function"
    },
    {
      "inputs": [
        {
          "internalType": "address",
          "name": "",
          "type": "address"
        }
      ],
      "name": "pendingWithdrawals",
      "outputs": [
        {
          "internalType": "uint256",
          "name": "",
          "type": "uint256"
        }
      ],
      "stateMutability": "view",
      "type": "function"
    },
    {
      "inputs": [],
      "name": "renounceOwnership",
      "outputs": [],
      "stateMutability": "nonpayable",
      "type": "function"
    },
    {
      "inputs": [
        {
          "internalType": "address",
          "name": "from",
          "type": "address"
        },
        {
          "internalType": "address",
          "name": "to",
          "type": "address"
        },
        {
          "internalType": "uint256",
          "name": "tokenId",
          "type": "uint256"
        }
      ],
      "name": "safeTransferFrom",
      "outputs": [],
      "stateMutability": "nonpayable",
      "type": "function"
    },
    {
      "inputs": [
        {
          "internalType": "address",
          "name": "from",
          "type": "address"
        },
        {
          "internalType": "address",
          "name": "to",
          "type": "address"
        },
        {
          "internalType": "uint256",
          "name": "tokenId",
          "type": "uint256"
        },
        {
          "internalType": "bytes",
          "name": "_data",
          "type": "bytes"
        }
      ],
      "name": "safeTransferFrom",
      "outputs": [],
      "stateMutability": "nonpayable",
      "type": "function"
    },
    {
      "inputs": [
        {
          "internalType": "address",
          "name": "operator",
          "type": "address"
        },
        {
          "internalType": "bool",
          "name": "approved",
          "type": "bool"
        }
      ],
      "name": "setApprovalForAll",
      "outputs": [],
      "stateMutability": "nonpayable",
      "type": "function"
    },
    {
      "inputs": [
        {
          "internalType": "bytes4",
          "name": "interfaceId",
          "type": "bytes4"
        }
      ],
      "name": "supportsInterface",
      "outputs": [
        {
          "internalType": "bool",
          "name": "",
          "type": "bool"
        }
      ],
      "stateMutability": "view",
      "type": "function"
    },
    {
      "inputs": [],
      "name": "symbol",
      "outputs": [
        {
          "internalType": "string",
          "name": "",
          "type": "string"
        }
      ],
      "stateMutability": "view",
      "type": "function"
    },
    {
      "inputs": [
        {
          "internalType": "uint256",
          "name": "index",
          "type": "uint256"
        }
      ],
      "name": "tokenByIndex",
      "outputs": [
        {
          "internalType": "uint256",
          "name": "",
          "type": "uint256"
        }
      ],
      "stateMutability": "view",
      "type": "function"
    },
    {
      "inputs": [
        {
          "internalType": "address",
          "name": "owner",
          "type": "address"
        },
        {
          "internalType": "uint256",
          "name": "index",
          "type": "uint256"
        }
      ],
      "name": "tokenOfOwnerByIndex",
      "outputs": [
        {
          "internalType": "uint256",
          "name": "",
          "type": "uint256"
        }
      ],
      "stateMutability": "view",
      "type": "function"
    },
    {
      "inputs": [
        {
          "internalType": "uint256",
          "name": "tokenId",
          "type": "uint256"
        }
      ],
      "name": "tokenURI",
      "outputs": [
        {
          "internalType": "string",
          "name": "",
          "type": "string"
        }
      ],
      "stateMutability": "view",
      "type": "function"
    },
    {
      "inputs": [],
      "name": "totalSupply",
      "outputs": [
        {
          "internalType": "uint256",
          "name": "",
          "type": "uint256"
        }
      ],
      "stateMutability": "view",
      "type": "function"
    },
    {
      "inputs": [
        {
          "internalType": "address",
          "name": "from",
          "type": "address"
        },
        {
          "internalType": "address",
          "name": "to",
          "type": "address"
        },
        {
          "internalType": "uint256",
          "name": "tokenId",
          "type": "uint256"
        }
      ],
      "name": "transferFrom",
      "outputs": [],
      "stateMutability": "nonpayable",
      "type": "function"
    },
    {
      "inputs": [
        {
          "internalType": "address",
          "name": "newOwner",
          "type": "address"
        }
      ],
      "name": "transferOwnership",
      "outputs": [],
      "stateMutability": "nonpayable",
      "type": "function"
    },
    {
      "inputs": [
        {
          "internalType": "string",
          "name": "_nameOfCoin",
          "type": "string"
        },
        {
          "internalType": "string",
          "name": "_ipfsHash",
          "type": "string"
        }
      ],
      "name": "preMint",
      "outputs": [],
      "stateMutability": "nonpayable",
      "type": "function"
    },
    {
      "inputs": [],
      "name": "BuyNewCoin",
      "outputs": [],
      "stateMutability": "payable",
      "type": "function"
    },
    {
      "inputs": [
        {
          "internalType": "uint256",
          "name": "_coinIndex",
          "type": "uint256"
        }
      ],
      "name": "CoinNoLongerForSale",
      "outputs": [],
      "stateMutability": "nonpayable",
      "type": "function"
    },
    {
      "inputs": [
        {
          "internalType": "uint256",
          "name": "_coinIndex",
          "type": "uint256"
        },
        {
          "internalType": "uint256",
          "name": "minSalePriceInWei",
          "type": "uint256"
        }
      ],
      "name": "offerCoinForSale",
      "outputs": [],
      "stateMutability": "nonpayable",
      "type": "function"
    },
    {
      "inputs": [
        {
          "internalType": "uint256",
          "name": "_coinIndex",
          "type": "uint256"
        },
        {
          "internalType": "uint256",
          "name": "minSalePriceInWei",
          "type": "uint256"
        },
        {
          "internalType": "address",
          "name": "toAddress",
          "type": "address"
        }
      ],
      "name": "offerCoinForSaleToAddress",
      "outputs": [],
      "stateMutability": "nonpayable",
      "type": "function"
    },
    {
      "inputs": [
        {
          "internalType": "uint256",
          "name": "_coinIndex",
          "type": "uint256"
        }
      ],
      "name": "buyCoin",
      "outputs": [],
      "stateMutability": "payable",
      "type": "function"
    },
    {
      "inputs": [
        {
          "internalType": "address",
          "name": "to",
          "type": "address"
        },
        {
          "internalType": "uint256",
          "name": "_coinIndex",
          "type": "uint256"
        }
      ],
      "name": "transferCoin",
      "outputs": [],
      "stateMutability": "nonpayable",
      "type": "function"
    },
    {
      "inputs": [],
      "name": "withdraw",
      "outputs": [],
      "stateMutability": "nonpayable",
      "type": "function"
    },
    {
      "inputs": [
        {
          "internalType": "uint256",
          "name": "_coinIndex",
          "type": "uint256"
        }
      ],
      "name": "enterBidForCoin",
      "outputs": [],
      "stateMutability": "payable",
      "type": "function"
    },
    {
      "inputs": [
        {
          "internalType": "uint256",
          "name": "_coinIndex",
          "type": "uint256"
        },
        {
          "internalType": "uint256",
          "name": "minPrice",
          "type": "uint256"
        }
      ],
      "name": "acceptBidForCoin",
      "outputs": [],
      "stateMutability": "nonpayable",
      "type": "function"
    },
    {
      "inputs": [
        {
          "internalType": "uint256",
          "name": "_coinIndex",
          "type": "uint256"
        }
      ],
      "name": "withdrawBidForCoin",
      "outputs": [],
      "stateMutability": "nonpayable",
      "type": "function"
    },
    {
      "inputs": [
        {
          "internalType": "address",
          "name": "_user",
          "type": "address"
        }
      ],
      "name": "getCoinsByAddress",
      "outputs": [
        {
          "internalType": "uint256[]",
          "name": "",
          "type": "uint256[]"
        }
      ],
      "stateMutability": "view",
      "type": "function"
    },
    {
      "inputs": [],
      "name": "getAllCoinsOnSale",
      "outputs": [
        {
          "internalType": "uint256[]",
          "name": "",
          "type": "uint256[]"
        }
      ],
      "stateMutability": "view",
      "type": "function"
    },
    {
      "inputs": [],
      "name": "getAllCoins",
      "outputs": [
        {
          "components": [
            {
              "internalType": "address",
              "name": "owner",
              "type": "address"
            },
            {
              "internalType": "uint256",
              "name": "coinIndex",
              "type": "uint256"
            },
            {
              "internalType": "string",
              "name": "nameOfCoin",
              "type": "string"
            },
            {
              "internalType": "string",
              "name": "ipfsHash",
              "type": "string"
            },
            {
              "internalType": "bool",
              "name": "isForSale",
              "type": "bool"
            },
            {
              "internalType": "uint256",
              "name": "minValueOffer",
              "type": "uint256"
            },
            {
              "internalType": "address",
              "name": "onlySellTo",
              "type": "address"
            },
            {
              "internalType": "bool",
              "name": "hasBid",
              "type": "bool"
            },
            {
              "internalType": "address",
              "name": "bidder",
              "type": "address"
            },
            {
              "internalType": "uint256",
              "name": "valueBid",
              "type": "uint256"
            }
          ],
          "internalType": "struct NFTBasicV2.Coin[]",
          "name": "_coins",
          "type": "tuple[]"
        }
      ],
      "stateMutability": "view",
      "type": "function"
    }
  ],
  "bytecode": "0x60806040523480156200001157600080fd5b506040805180820182526008815267436f696e6173747960c01b60208083019190915282518084019093526005835264434e53545960d81b9083015290620000606301ffc9a760e01b62000137565b81516200007590600690602085019062000196565b5080516200008b90600790602084019062000196565b506200009e6380ac58cd60e01b62000137565b620000b0635b5e139f60e01b62000137565b620000c263780e9d6360e01b62000137565b5060009050620000d162000192565b600a80546001600160a01b0319166001600160a01b038316908117909155604051919250906000907f8be0079c531659141344cd1fd0a4f28419497f9722a3daafe3b4186f6b6457e0908290a350600c80546001600160a01b0319163317905562000269565b6001600160e01b031980821614156200016d5760405162461bcd60e51b8152600401620001649062000232565b60405180910390fd5b6001600160e01b0319166000908152602081905260409020805460ff19166001179055565b3390565b828054600181600116156101000203166002900490600052602060002090601f016020900481019282601f10620001d957805160ff191683800117855562000209565b8280016001018555821562000209579182015b8281111562000209578251825591602001919060010190620001ec565b50620002179291506200021b565b5090565b5b808211156200021757600081556001016200021c565b6020808252601c908201527f4552433136353a20696e76616c696420696e7465726661636520696400000000604082015260600190565b613e6e80620002796000396000f3fe60806040526004361061020f5760003560e01c806370a0823111610118578063a4ec0620116100a0578063cbb828521161006f578063cbb82852146105e6578063e28ee9ab14610606578063e985e9c51461060e578063f2fde38b1461062e578063f3f437031461064e5761020f565b8063a4ec06201461054e578063b88d4fde14610570578063c661065714610590578063c87b56dd146105c65761020f565b80638da5cb5b116100e75780638da5cb5b146104c45780638dde60fa146104d957806395d89b41146104f9578063977ff7291461050e578063a22cb4651461052e5761020f565b806370a0823114610467578063715018a614610487578063876862041461049c57806387792574146104b15761020f565b80633ccfd60b1161019b5780634f6ccce71161016a5780634f6ccce7146103d257806351952d42146103f257806355f8dc69146104125780636352211e146104325780636c0360eb146104525761020f565b80633ccfd60b1461035d578063416d0cf81461037257806342842e0e146103855780634ecd4bc1146103a55761020f565b806318160ddd116101e257806318160ddd146102bb57806318f500a3146102dd5780631949309f146102fd57806323b872dd1461031d5780632f745c591461033d5761020f565b806301ffc9a71461021457806306fdde031461024a578063081812fc1461026c578063095ea7b314610299575b600080fd5b34801561022057600080fd5b5061023461022f366004613442565b61066e565b604051610241919061383e565b60405180910390f35b34801561025657600080fd5b5061025f610691565b6040516102419190613849565b34801561027857600080fd5b5061028c6102873660046134db565b610727565b6040516102419190613628565b3480156102a557600080fd5b506102b96102b4366004613418565b610773565b005b3480156102c757600080fd5b506102d061080b565b6040516102419190613d34565b3480156102e957600080fd5b506102b96102f836600461347a565b61081c565b34801561030957600080fd5b506102b96103183660046134db565b610a08565b34801561032957600080fd5b506102b9610338366004613335565b610d3d565b34801561034957600080fd5b506102d0610358366004613418565b610d75565b34801561036957600080fd5b506102b9610da0565b6102b96103803660046134db565b610de5565b34801561039157600080fd5b506102b96103a0366004613335565b61111f565b3480156103b157600080fd5b506103c56103c03660046132e6565b61113a565b60405161024191906137fa565b3480156103de57600080fd5b506102d06103ed3660046134db565b6111d1565b3480156103fe57600080fd5b506102b961040d3660046134db565b6111df565b34801561041e57600080fd5b506102b961042d3660046134f3565b6112cf565b34801561043e57600080fd5b5061028c61044d3660046134db565b6113be565b34801561045e57600080fd5b5061025f6113e6565b34801561047357600080fd5b506102d06104823660046132e6565b611447565b34801561049357600080fd5b506102b9611490565b3480156104a857600080fd5b506103c561150f565b6102b96104bf3660046134db565b6115e3565b3480156104d057600080fd5b5061028c611936565b3480156104e557600080fd5b506102b96104f4366004613418565b611945565b34801561050557600080fd5b5061025f611c27565b34801561051a57600080fd5b506102b9610529366004613514565b611c88565b34801561053a57600080fd5b506102b96105493660046133dd565b611d82565b34801561055a57600080fd5b50610563611e50565b60405161024191906136f2565b34801561057c57600080fd5b506102b961058b366004613375565b612051565b34801561059c57600080fd5b506105b06105ab3660046134db565b61208a565b6040516102419a99989796959493929190613679565b3480156105d257600080fd5b5061025f6105e13660046134db565b61221e565b3480156105f257600080fd5b506102b96106013660046134f3565b612368565b6102b9612742565b34801561061a57600080fd5b50610234610629366004613301565b612744565b34801561063a57600080fd5b506102b96106493660046132e6565b612772565b34801561065a57600080fd5b506102d06106693660046132e6565b612829565b6001600160e01b0319811660009081526020819052604090205460ff165b919050565b60068054604080516020601f600260001961010060018816150201909516949094049384018190048102820181019092528281526060939092909183018282801561071d5780601f106106f25761010080835404028352916020019161071d565b820191906000526020600020905b81548152906001019060200180831161070057829003601f168201915b5050505050905090565b60006107328261283b565b6107575760405162461bcd60e51b815260040161074e90613b52565b60405180910390fd5b506000908152600460205260409020546001600160a01b031690565b600061077e826113be565b9050806001600160a01b0316836001600160a01b031614156107b25760405162461bcd60e51b815260040161074e90613c6b565b806001600160a01b03166107c4612848565b6001600160a01b031614806107e057506107e081610629612848565b6107fc5760405162461bcd60e51b815260040161074e90613a34565b610806838361284c565b505050565b600061081760026128ba565b905090565b600c546001600160a01b0316331461083357600080fd5b600e5461083e61314c565b506040805161014081018252338152602080820184815292820186815260608301869052600160808401819052662386f26fc1000060a0850152600060c0850181905260e0850181905261010085018190526101208501819052600e80549283018155905283517fbb7b4a454dc3493923482f07822329ed19e8244eff582cc204f8554c3620c3fd600990920291820180546001600160a01b0319166001600160a01b0390921691909117815594517fbb7b4a454dc3493923482f07822329ed19e8244eff582cc204f8554c3620c3fe82015590518051939485949093610949937fbb7b4a454dc3493923482f07822329ed19e8244eff582cc204f8554c3620c3ff019201906131be565b50606082015180516109659160038401916020909101906131be565b50608082015160048201805491151560ff1990921691909117905560a0820151600582015560c082015160068201805460e08501511515600160a01b0260ff60a01b196001600160a01b039485166001600160a01b0319938416171617909155610100840151600784018054919093169116179055610120909101516008909101556109f133836128c5565b610a0282662386f26fc100006112cf565b50505050565b6000610a13826113be565b6001600160a01b03161415610a2757600080fd5b33610a31826113be565b6001600160a01b03161415610a4557600080fd5b610a4d61314c565b600e8281548110610a5a57fe5b6000918252602091829020604080516101408101825260099390930290910180546001600160a01b03168352600180820154848601526002808301805485516101009482161594909402600019011691909104601f8101879004870283018701855280835294959294938601939192909190830182828015610b1d5780601f10610af257610100808354040283529160200191610b1d565b820191906000526020600020905b815481529060010190602001808311610b0057829003601f168201915b505050918352505060038201805460408051602060026001851615610100026000190190941693909304601f8101849004840282018401909252818152938201939291830182828015610bb15780601f10610b8657610100808354040283529160200191610bb1565b820191906000526020600020905b815481529060010190602001808311610b9457829003601f168201915b5050509183525050600482015460ff908116151560208301526005830154604083015260068301546001600160a01b038082166060850152600160a01b909104909116151560808301526007830154811660a083015260089092015460c090910152610100820151919250163314610c2857600080fd5b7fee14cf4458bda20cc2dd75ee4de3b15ea05d006c903359cf2eb1f46c057bc9cf8282610120015133604051610c6093929190613d3d565b60405180910390a1600081610120015190506000600e8481548110610c8157fe5b906000526020600020906009020160060160146101000a81548160ff0219169083151502179055506000600e8481548110610cb857fe5b906000526020600020906009020160070160006101000a8154816001600160a01b0302191690836001600160a01b031602179055506000600e8481548110610cfc57fe5b60009182526020822060086009909202010191909155604051339183156108fc02918491818181858888f19350505050158015610a02573d6000803e3d6000fd5b610d4e610d48612848565b82612989565b610d6a5760405162461bcd60e51b815260040161074e90613cac565b610806838383612a0e565b6001600160a01b0382166000908152600160205260408120610d979083612b1c565b90505b92915050565b336000818152600d6020526040808220805490839055905190929183156108fc02918491818181858888f19350505050158015610de1573d6000803e3d6000fd5b5050565b6000610df0826113be565b6001600160a01b03161415610e0457600080fd5b33610e0e826113be565b6001600160a01b03161415610e2257600080fd5b34610e2c57600080fd5b610e3461314c565b600e8281548110610e4157fe5b6000918252602091829020604080516101408101825260099390930290910180546001600160a01b03168352600180820154848601526002808301805485516101009482161594909402600019011691909104601f8101879004870283018701855280835294959294938601939192909190830182828015610f045780601f10610ed957610100808354040283529160200191610f04565b820191906000526020600020905b815481529060010190602001808311610ee757829003601f168201915b505050918352505060038201805460408051602060026001851615610100026000190190941693909304601f8101849004840282018401909252818152938201939291830182828015610f985780601f10610f6d57610100808354040283529160200191610f98565b820191906000526020600020905b815481529060010190602001808311610f7b57829003601f168201915b5050509183525050600482015460ff908116151560208301526005830154604083015260068301546001600160a01b038082166060850152600160a01b9091049091161515608083015260078301541660a082015260089091015460c090910152610120810151909150341161100d57600080fd5b61012081015115611043576101208101516101008201516001600160a01b03166000908152600d60205260409020805490910190555b6001600e838154811061105257fe5b906000526020600020906009020160060160146101000a81548160ff02191690831515021790555033600e838154811061108857fe5b906000526020600020906009020160070160006101000a8154816001600160a01b0302191690836001600160a01b0316021790555034600e83815481106110cb57fe5b9060005260206000209060090201600801819055507f27ebeab224541b64dff25b03217825ac2f73fa8f646dc7b5f054ca2aa49b353b82343360405161111393929190613d3d565b60405180910390a15050565b61080683838360405180602001604052806000815250612051565b6060600061114783611447565b905060608167ffffffffffffffff8111801561116257600080fd5b5060405190808252806020026020018201604052801561118c578160200160208202803683370190505b50905060005b828110156111c95760006111a68683610d75565b9050808383815181106111b557fe5b602090810291909101015250600101611192565b509392505050565b6000806111c9600284612b28565b336111e9826113be565b6001600160a01b0316146111fc57600080fd5b6000600e828154811061120b57fe5b60009182526020822060099190910201600401805460ff191692151592909217909155600e80548390811061123c57fe5b9060005260206000209060090201600501819055506000600e828154811061126057fe5b906000526020600020906009020160060160006101000a8154816001600160a01b0302191690836001600160a01b031602179055507fa36082812d8b74923675a917272061132076a19be27a2ff0af345789fcb875c5816040516112c49190613d34565b60405180910390a150565b336112d9836113be565b6001600160a01b0316146112ec57600080fd5b6001600e83815481106112fb57fe5b906000526020600020906009020160040160006101000a81548160ff02191690831515021790555080600e838154811061133157fe5b9060005260206000209060090201600501819055506000600e838154811061135557fe5b906000526020600020906009020160060160006101000a8154816001600160a01b0302191690836001600160a01b031602179055507fb93c24edbc654401ba92e865b581b55624669f98eacad7128b8f59bbdf55cd668282600060405161111393929190613d3d565b6000610d9a82604051806060016040528060298152602001613e106029913960029190612b44565b60098054604080516020601f600260001961010060018816150201909516949094049384018190048102820181019092528281526060939092909183018282801561071d5780601f106106f25761010080835404028352916020019161071d565b60006001600160a01b03821661146f5760405162461bcd60e51b815260040161074e90613a91565b6001600160a01b0382166000908152600160205260409020610d9a906128ba565b611498612848565b600a546001600160a01b039081169116146114c55760405162461bcd60e51b815260040161074e90613b9e565b600a546040516000916001600160a01b0316907f8be0079c531659141344cd1fd0a4f28419497f9722a3daafe3b4186f6b6457e0908390a3600a80546001600160a01b0319169055565b6060600061151b61080b565b905060608167ffffffffffffffff8111801561153657600080fd5b50604051908082528060200260200182016040528015611560578160200160208202803683370190505b50905060005b828110156115dc57600e818154811061157b57fe5b600091825260209091206004600990920201015460ff161515600114156115d457600e81815481106115a957fe5b9060005260206000209060090201600101548282815181106115c757fe5b6020026020010181815250505b600101611566565b5091505090565b6115eb61314c565b600e82815481106115f857fe5b6000918252602091829020604080516101408101825260099390930290910180546001600160a01b03168352600180820154848601526002808301805485516101009482161594909402600019011691909104601f81018790048702830187018552808352949592949386019391929091908301828280156116bb5780601f10611690576101008083540402835291602001916116bb565b820191906000526020600020905b81548152906001019060200180831161169e57829003601f168201915b505050918352505060038201805460408051602060026001851615610100026000190190941693909304601f810184900484028201840190925281815293820193929183018282801561174f5780601f106117245761010080835404028352916020019161174f565b820191906000526020600020905b81548152906001019060200180831161173257829003601f168201915b5050509183525050600482015460ff908116151560208301526005830154604083015260068301546001600160a01b038082166060850152600160a01b9091049091161515608080840191909152600784015490911660a083015260089092015460c0909101528101519091506117c557600080fd5b60c08101516001600160a01b0316158015906117ee575060c08101516001600160a01b03163314155b156117f857600080fd5b8060a0015134101561180957600080fd5b611812826113be565b6001600160a01b031681600001516001600160a01b03161461183357600080fd5b8051611840813385612a0e565b611849836111df565b6001600160a01b038082166000908152600d602052604090208054340190556101008301511633141561080657610120820151336000908152600d602052604081208054909201909155600e8054859081106118a157fe5b906000526020600020906009020160060160146101000a81548160ff0219169083151502179055506000600e84815481106118d857fe5b906000526020600020906009020160070160006101000a8154816001600160a01b0302191690836001600160a01b031602179055506000600e848154811061191c57fe5b906000526020600020906009020160080181905550505050565b600a546001600160a01b031690565b3361194f826113be565b6001600160a01b03161461196257600080fd5b600e818154811061196f57fe5b600091825260209091206004600990920201015460ff161561199457611994816111df565b61199f33838361111f565b6119a761314c565b600e82815481106119b457fe5b6000918252602091829020604080516101408101825260099390930290910180546001600160a01b03168352600180820154848601526002808301805485516101009482161594909402600019011691909104601f8101879004870283018701855280835294959294938601939192909190830182828015611a775780601f10611a4c57610100808354040283529160200191611a77565b820191906000526020600020905b815481529060010190602001808311611a5a57829003601f168201915b505050918352505060038201805460408051602060026001851615610100026000190190941693909304601f8101849004840282018401909252818152938201939291830182828015611b0b5780601f10611ae057610100808354040283529160200191611b0b565b820191906000526020600020905b815481529060010190602001808311611aee57829003601f168201915b5050509183525050600482015460ff908116151560208301526005830154604083015260068301546001600160a01b038082166060850152600160a01b909104909116151560808301526007830154811660a083015260089092015460c0909101526101008201519192508481169116141561080657610120810151336000908152600d602052604081208054909201909155600e805484908110611bac57fe5b906000526020600020906009020160060160146101000a81548160ff0219169083151502179055506000600e8381548110611be357fe5b906000526020600020906009020160070160006101000a8154816001600160a01b0302191690836001600160a01b031602179055506000600e838154811061191c57fe5b60078054604080516020601f600260001961010060018816150201909516949094049384018190048102820181019092528281526060939092909183018282801561071d5780601f106106f25761010080835404028352916020019161071d565b33611c92846113be565b6001600160a01b031614611ca557600080fd5b6001600e8481548110611cb457fe5b906000526020600020906009020160040160006101000a81548160ff02191690831515021790555081600e8481548110611cea57fe5b90600052602060002090600902016005018190555080600e8481548110611d0d57fe5b906000526020600020906009020160060160006101000a8154816001600160a01b0302191690836001600160a01b031602179055507fb93c24edbc654401ba92e865b581b55624669f98eacad7128b8f59bbdf55cd66838383604051611d7593929190613d3d565b60405180910390a1505050565b611d8a612848565b6001600160a01b0316826001600160a01b03161415611dbb5760405162461bcd60e51b815260040161074e906139b1565b8060056000611dc8612848565b6001600160a01b03908116825260208083019390935260409182016000908120918716808252919093529120805460ff191692151592909217909155611e0c612848565b6001600160a01b03167f17307eab39ab6107e8899845ad3d59bd9653f200f220920489ca2b5937696c3183604051611e44919061383e565b60405180910390a35050565b6060600e805480602002602001604051908101604052809291908181526020016000905b8282101561204857600084815260209081902060408051610140810182526009860290920180546001600160a01b03168352600180820154848601526002808301805485516101009482161594909402600019011691909104601f8101879004870283018701855280835294959294938601939192909190830182828015611f3d5780601f10611f1257610100808354040283529160200191611f3d565b820191906000526020600020905b815481529060010190602001808311611f2057829003601f168201915b505050918352505060038201805460408051602060026001851615610100026000190190941693909304601f8101849004840282018401909252818152938201939291830182828015611fd15780601f10611fa657610100808354040283529160200191611fd1565b820191906000526020600020905b815481529060010190602001808311611fb457829003601f168201915b5050509183525050600482015460ff90811615156020808401919091526005840154604084015260068401546001600160a01b038082166060860152600160a01b90910490921615156080840152600784015490911660a083015260089092015460c0909101529082526001929092019101611e74565b50505050905090565b61206261205c612848565b83612989565b61207e5760405162461bcd60e51b815260040161074e90613cac565b610a0284848484612b5b565b600e818154811061209757fe5b6000918252602091829020600991909102018054600180830154600280850180546040805161010096831615969096026000190190911692909204601f81018890048802850188019092528184526001600160a01b03909416965090949192918301828280156121485780601f1061211d57610100808354040283529160200191612148565b820191906000526020600020905b81548152906001019060200180831161212b57829003601f168201915b5050505060038301805460408051602060026001851615610100026000190190941693909304601f81018490048402820184019092528181529495949350908301828280156121d85780601f106121ad576101008083540402835291602001916121d8565b820191906000526020600020905b8154815290600101906020018083116121bb57829003601f168201915b5050506004840154600585015460068601546007870154600890970154959660ff938416969295506001600160a01b038083169550600160a01b9092049093169216908a565b60606122298261283b565b6122455760405162461bcd60e51b815260040161074e90613c1c565b60008281526008602090815260409182902080548351601f60026000196101006001861615020190931692909204918201849004840281018401909452808452606093928301828280156122da5780601f106122af576101008083540402835291602001916122da565b820191906000526020600020905b8154815290600101906020018083116122bd57829003601f168201915b50506009549394505050506002600019610100600184161502019091160461230357905061068c565b8051156123355760098160405160200161231e9291906135a7565b60405160208183030381529060405291505061068c565b600961234084612b8e565b6040516020016123519291906135a7565b604051602081830303815290604052915050919050565b33612372836113be565b6001600160a01b03161461238557600080fd5b3361238e61314c565b600e848154811061239b57fe5b6000918252602091829020604080516101408101825260099390930290910180546001600160a01b03168352600180820154848601526002808301805485516101009482161594909402600019011691909104601f810187900487028301870185528083529495929493860193919290919083018282801561245e5780601f106124335761010080835404028352916020019161245e565b820191906000526020600020905b81548152906001019060200180831161244157829003601f168201915b505050918352505060038201805460408051602060026001851615610100026000190190941693909304601f81018490048402820184019092528181529382019392918301828280156124f25780601f106124c7576101008083540402835291602001916124f2565b820191906000526020600020905b8154815290600101906020018083116124d557829003601f168201915b5050509183525050600482015460ff908116151560208301526005830154604083015260068301546001600160a01b038082166060850152600160a01b9091049091161515608083015260078301541660a082015260089091015460c09091015261012081015190915061256557600080fd5b82816101200151101561257757600080fd5b612587338261010001518661111f565b610120810151610100820151600e8054879081106125a157fe5b6000918252602082206009919091020180546001600160a01b0319166001600160a01b039390931692909217909155600e8054879081106125de57fe5b60009182526020822060099190910201600401805460ff191692151592909217909155600e80548790811061260f57fe5b906000526020600020906009020160060160146101000a81548160ff0219169083151502179055506000600e868154811061264657fe5b906000526020600020906009020160070160006101000a8154816001600160a01b0302191690836001600160a01b031602179055506000600e868154811061268a57fe5b9060005260206000209060090201600801819055506000600e86815481106126ae57fe5b6000918252602080832060099290920290910160060180546001600160a01b0319166001600160a01b039485161790559185168152600d90915260409081902080548301905561012083015161010084015191517f6d62730e57ae25889beb253ef745a11bbf2a9be0e0ced29363056c456036b2279261273392899290918891613d5c565b60405180910390a15050505050565b565b6001600160a01b03918216600090815260056020908152604080832093909416825291909152205460ff1690565b61277a612848565b600a546001600160a01b039081169116146127a75760405162461bcd60e51b815260040161074e90613b9e565b6001600160a01b0381166127cd5760405162461bcd60e51b815260040161074e906138f0565b600a546040516001600160a01b038084169216907f8be0079c531659141344cd1fd0a4f28419497f9722a3daafe3b4186f6b6457e090600090a3600a80546001600160a01b0319166001600160a01b0392909216919091179055565b600d6020526000908152604090205481565b6000610d9a600283612c69565b3390565b600081815260046020526040902080546001600160a01b0319166001600160a01b0384169081179091558190612881826113be565b6001600160a01b03167f8c5be1e5ebec7d5bd14f71427d1e84f3dd0314c0f7b2291e5b200ac8c7c3b92560405160405180910390a45050565b6000610d9a82612c75565b6001600160a01b0382166128eb5760405162461bcd60e51b815260040161074e90613b1d565b6128f48161283b565b156129115760405162461bcd60e51b815260040161074e90613936565b61291d60008383610806565b6001600160a01b038216600090815260016020526040902061293f9082612c79565b5061294c60028284612c85565b5060405181906001600160a01b038416906000907fddf252ad1be2c89b69c2b068fc378daa952ba7f163c4a11628f55a4df523b3ef908290a45050565b60006129948261283b565b6129b05760405162461bcd60e51b815260040161074e906139e8565b60006129bb836113be565b9050806001600160a01b0316846001600160a01b031614806129f65750836001600160a01b03166129eb84610727565b6001600160a01b0316145b80612a065750612a068185612744565b949350505050565b826001600160a01b0316612a21826113be565b6001600160a01b031614612a475760405162461bcd60e51b815260040161074e90613bd3565b6001600160a01b038216612a6d5760405162461bcd60e51b815260040161074e9061396d565b612a78838383610806565b612a8360008261284c565b6001600160a01b0383166000908152600160205260409020612aa59082612c9b565b506001600160a01b0382166000908152600160205260409020612ac89082612c79565b50612ad560028284612c85565b5080826001600160a01b0316846001600160a01b03167fddf252ad1be2c89b69c2b068fc378daa952ba7f163c4a11628f55a4df523b3ef60405160405180910390a4505050565b6000610d978383612ca7565b6000808080612b378686612cec565b9097909650945050505050565b6000612b51848484612d48565b90505b9392505050565b612b66848484612a0e565b612b7284848484612da7565b610a025760405162461bcd60e51b815260040161074e9061389e565b606081612bb357506040805180820190915260018152600360fc1b602082015261068c565b8160005b8115612bcb57600101600a82049150612bb7565b60608167ffffffffffffffff81118015612be457600080fd5b506040519080825280601f01601f191660200182016040528015612c0f576020820181803683370190505b50859350905060001982015b8315612c6057600a840660300160f81b82828060019003935081518110612c3e57fe5b60200101906001600160f81b031916908160001a905350600a84049350612c1b565b50949350505050565b6000610d978383612e86565b5490565b6000610d978383612e9e565b6000612b5184846001600160a01b038516612ee8565b6000610d978383612f7f565b81546000908210612cca5760405162461bcd60e51b815260040161074e9061385c565b826000018281548110612cd957fe5b9060005260206000200154905092915050565b815460009081908310612d115760405162461bcd60e51b815260040161074e90613adb565b6000846000018481548110612d2257fe5b906000526020600020906002020190508060000154816001015492509250509250929050565b60008281526001840160205260408120548281612d785760405162461bcd60e51b815260040161074e9190613849565b50846000016001820381548110612d8b57fe5b9060005260206000209060020201600101549150509392505050565b6000612dbb846001600160a01b0316613045565b612dc757506001612a06565b6060612e4f630a85bd0160e11b612ddc612848565b888787604051602401612df2949392919061363c565b604051602081830303815290604052906001600160e01b0319166020820180516001600160e01b038381831617835250505050604051806060016040528060328152602001613dde603291396001600160a01b038816919061307e565b9050600081806020019051810190612e67919061345e565b6001600160e01b031916630a85bd0160e11b1492505050949350505050565b60009081526001919091016020526040902054151590565b6000612eaa8383612e86565b612ee057508154600181810184556000848152602080822090930184905584548482528286019093526040902091909155610d9a565b506000610d9a565b600082815260018401602052604081205480612f4d575050604080518082018252838152602080820184815286546001818101895560008981528481209551600290930290950191825591519082015586548684528188019092529290912055612b54565b82856000016001830381548110612f6057fe5b9060005260206000209060020201600101819055506000915050612b54565b6000818152600183016020526040812054801561303b5783546000198083019190810190600090879083908110612fb257fe5b9060005260206000200154905080876000018481548110612fcf57fe5b600091825260208083209091019290925582815260018981019092526040902090840190558654879080612fff57fe5b60019003818190600052602060002001600090559055866001016000878152602001908152602001600020600090556001945050505050610d9a565b6000915050610d9a565b6000813f7fc5d2460186f7233c927e7db2dcc703c0e500b653ca82273b7bfad8045d85a470818114801590612a06575050151592915050565b6060612b518484600085606061309385613045565b6130af5760405162461bcd60e51b815260040161074e90613cfd565b60006060866001600160a01b031685876040516130cc919061358b565b60006040518083038185875af1925050503d8060008114613109576040519150601f19603f3d011682016040523d82523d6000602084013e61310e565b606091505b50915091508115613122579150612a069050565b8051156131325780518082602001fd5b8360405162461bcd60e51b815260040161074e9190613849565b60405180610140016040528060006001600160a01b031681526020016000815260200160608152602001606081526020016000151581526020016000815260200160006001600160a01b0316815260200160001515815260200160006001600160a01b03168152602001600081525090565b828054600181600116156101000203166002900490600052602060002090601f016020900481019282601f106131ff57805160ff191683800117855561322c565b8280016001018555821561322c579182015b8281111561322c578251825591602001919060010190613211565b5061323892915061323c565b5090565b5b80821115613238576000815560010161323d565b80356001600160a01b0381168114610d9a57600080fd5b600082601f830112613278578081fd5b813567ffffffffffffffff8082111561328f578283fd5b604051601f8301601f1916810160200182811182821017156132af578485fd5b6040528281529250828483016020018610156132ca57600080fd5b8260208601602083013760006020848301015250505092915050565b6000602082840312156132f7578081fd5b610d978383613251565b60008060408385031215613313578081fd5b61331d8484613251565b915061332c8460208501613251565b90509250929050565b600080600060608486031215613349578081fd5b833561335481613daf565b9250602084013561336481613daf565b929592945050506040919091013590565b6000806000806080858703121561338a578081fd5b6133948686613251565b93506133a38660208701613251565b925060408501359150606085013567ffffffffffffffff8111156133c5578182fd5b6133d187828801613268565b91505092959194509250565b600080604083850312156133ef578182fd5b6133f98484613251565b91506020830135801515811461340d578182fd5b809150509250929050565b6000806040838503121561342a578182fd5b6134348484613251565b946020939093013593505050565b600060208284031215613453578081fd5b8135612b5481613dc7565b60006020828403121561346f578081fd5b8151612b5481613dc7565b6000806040838503121561348c578182fd5b823567ffffffffffffffff808211156134a3578384fd5b6134af86838701613268565b935060208501359150808211156134c4578283fd5b506134d185828601613268565b9150509250929050565b6000602082840312156134ec578081fd5b5035919050565b60008060408385031215613505578182fd5b50508035926020909101359150565b600080600060608486031215613528578283fd5b8335925060208401359150604084013561354181613daf565b809150509250925092565b6001600160a01b03169052565b15159052565b60008151808452613577816020860160208601613d83565b601f01601f19169290920160200192915050565b6000825161359d818460208701613d83565b9190910192915050565b60008084546001808216600081146135c657600181146135dd5761360c565b60ff198316865260028304607f168601935061360c565b600283048886526020808720875b838110156136045781548a8201529085019082016135eb565b505050860193505b505050835161361f818360208801613d83565b01949350505050565b6001600160a01b0391909116815260200190565b6001600160a01b038581168252841660208201526040810183905260806060820181905260009061366f9083018461355f565b9695505050505050565b6001600160a01b038b81168252602082018b9052610140604083018190526000916136a68483018d61355f565b915083820360608501526136ba828c61355f565b991515608085015260a0840198909852505093851660c085015291151560e08401529092166101008201526101200152949350505050565b60208082528251828201819052600091906040908185019080840286018301878501865b838110156137ec57603f19898403018552815161014061373785835161354c565b88820151898601528782015181898701526137548287018261355f565b9150506060808301518683038288015261376e838261355f565b9250505060808083015161378482880182613559565b505060a0828101519086015260c0808301516137a28288018261354c565b505060e0808301516137b682880182613559565b5050610100808301516137cb8288018261354c565b50506101209182015194909101939093529386019390860190600101613716565b509098975050505050505050565b6020808252825182820181905260009190848201906040850190845b8181101561383257835183529284019291840191600101613816565b50909695505050505050565b901515815260200190565b600060208252610d97602083018461355f565b60208082526022908201527f456e756d657261626c655365743a20696e646578206f7574206f6620626f756e604082015261647360f01b606082015260800190565b60208082526032908201527f4552433732313a207472616e7366657220746f206e6f6e20455243373231526560408201527131b2b4bb32b91034b6b83632b6b2b73a32b960711b606082015260800190565b60208082526026908201527f4f776e61626c653a206e6577206f776e657220697320746865207a65726f206160408201526564647265737360d01b606082015260800190565b6020808252601c908201527f4552433732313a20746f6b656e20616c7265616479206d696e74656400000000604082015260600190565b60208082526024908201527f4552433732313a207472616e7366657220746f20746865207a65726f206164646040820152637265737360e01b606082015260800190565b60208082526019908201527f4552433732313a20617070726f766520746f2063616c6c657200000000000000604082015260600190565b6020808252602c908201527f4552433732313a206f70657261746f7220717565727920666f72206e6f6e657860408201526b34b9ba32b73a103a37b5b2b760a11b606082015260800190565b60208082526038908201527f4552433732313a20617070726f76652063616c6c6572206973206e6f74206f7760408201527f6e6572206e6f7220617070726f76656420666f7220616c6c0000000000000000606082015260800190565b6020808252602a908201527f4552433732313a2062616c616e636520717565727920666f7220746865207a65604082015269726f206164647265737360b01b606082015260800190565b60208082526022908201527f456e756d657261626c654d61703a20696e646578206f7574206f6620626f756e604082015261647360f01b606082015260800190565b6020808252818101527f4552433732313a206d696e7420746f20746865207a65726f2061646472657373604082015260600190565b6020808252602c908201527f4552433732313a20617070726f76656420717565727920666f72206e6f6e657860408201526b34b9ba32b73a103a37b5b2b760a11b606082015260800190565b6020808252818101527f4f776e61626c653a2063616c6c6572206973206e6f7420746865206f776e6572604082015260600190565b60208082526029908201527f4552433732313a207472616e73666572206f6620746f6b656e2074686174206960408201526839903737ba1037bbb760b91b606082015260800190565b6020808252602f908201527f4552433732314d657461646174613a2055524920717565727920666f72206e6f60408201526e3732bc34b9ba32b73a103a37b5b2b760891b606082015260800190565b60208082526021908201527f4552433732313a20617070726f76616c20746f2063757272656e74206f776e656040820152603960f91b606082015260800190565b60208082526031908201527f4552433732313a207472616e736665722063616c6c6572206973206e6f74206f6040820152701ddb995c881b9bdc88185c1c1c9bdd9959607a1b606082015260800190565b6020808252601d908201527f416464726573733a2063616c6c20746f206e6f6e2d636f6e7472616374000000604082015260600190565b90815260200190565b92835260208301919091526001600160a01b0316604082015260600190565b93845260208401929092526001600160a01b03908116604084015216606082015260800190565b60005b83811015613d9e578181015183820152602001613d86565b83811115610a025750506000910152565b6001600160a01b0381168114613dc457600080fd5b50565b6001600160e01b031981168114613dc457600080fdfe4552433732313a207472616e7366657220746f206e6f6e20455243373231526563656976657220696d706c656d656e7465724552433732313a206f776e657220717565727920666f72206e6f6e6578697374656e7420746f6b656ea264697066735822122056794dcc440158e2a9ec52e7b3f3fee7154648bded1ea3f94b2a282edcf5850d64736f6c63430007000033",
  "immutableReferences": {},
  "source": "// SPDX-License-Identifier: MIT\npragma solidity >=0.7.0 <0.9.0;\npragma experimental ABIEncoderV2;\nimport \"@openzeppelin/contracts/token/ERC721/ERC721.sol\";\nimport \"@openzeppelin/contracts/access/Ownable.sol\";\n\ncontract NFTBasicV2 is ERC721,Ownable {\n    \n  mapping (uint256 => address) internal tokenOwner;\n  uint constant minimumPrice = 0.01 ether;\n  address contractOwner;\n  constructor() public ERC721(\"Coinasty\", \"CNSTY\"){contractOwner = msg.sender;}\n  \n  struct Coin {\n    address owner;\n    uint coinIndex;\n    string nameOfCoin;\n    string ipfsHash;\n    \n    bool isForSale;\n    uint minValueOffer;          // in ether\n    address onlySellTo;\n    \n    bool hasBid;\n    address bidder;\n    uint valueBid;\n  }\n\n  \n    \n    mapping (address => uint) public pendingWithdrawals;\n    Coin[] public coins;\n    \n    event CoinOffered(uint coinIndex, uint minPrice, address toAddress);\n    event CoinNoMoreForSale(uint coinIndex);\n    event CoinBidEntered(uint coinIndex, uint value, address fromAddress);\n    event CoinBought(uint  coinIndex, uint value, address fromAddress, address toAddress);\n    event CoinBidWithdrawn(uint coinIndex, uint value, address fromAddress);  \n  \n  function preMint(string memory _nameOfCoin,string memory _ipfsHash)public{\n      require (msg.sender==contractOwner);\n      uint _coinId = coins.length;\n        Coin memory _coin= Coin({ \n        owner: msg.sender,\n        coinIndex:_coinId, \n        nameOfCoin: _nameOfCoin,\n        ipfsHash: _ipfsHash,\n        \n        isForSale: true,\n        minValueOffer:minimumPrice,\n        onlySellTo:address(0),\n        \n        hasBid: false,\n        bidder: address(0),\n        valueBid: 0\n        \n            \n        });\n        coins.push(_coin);\n        _mint(msg.sender, _coinId);\n        offerCoinForSale(_coinId, minimumPrice );\n  }\n  \n  \n  function mint(uint _coinId) private {\n    _mint(msg.sender, _coinId);\n        \n  }\n  \n  function BuyNewCoin() public payable{\n      //todo\n  }\n  \n  \n  function CoinNoLongerForSale(uint _coinIndex) public{\n      if (ownerOf(_coinIndex) != msg.sender) revert();\n      coins[_coinIndex].isForSale = false;\n      coins[_coinIndex].minValueOffer= 0;\n      coins[_coinIndex].onlySellTo= address(0);\n      CoinNoMoreForSale(_coinIndex);\n      \n  }\n  \n  function offerCoinForSale(uint _coinIndex, uint minSalePriceInWei) public{\n      if (ownerOf(_coinIndex) != msg.sender) revert();\n      coins[_coinIndex].isForSale= true;\n      coins[_coinIndex].minValueOffer= minSalePriceInWei ;\n      coins[_coinIndex].onlySellTo= address(0);\n      CoinOffered(_coinIndex, minSalePriceInWei, address(0));\n      \n  }\n  \n  function offerCoinForSaleToAddress(uint _coinIndex, uint minSalePriceInWei,address toAddress) public{\n      if (ownerOf(_coinIndex) != msg.sender) revert();\n      coins[_coinIndex].isForSale= true;\n      coins[_coinIndex].minValueOffer= minSalePriceInWei;\n      coins[_coinIndex].onlySellTo= toAddress;\n      CoinOffered(_coinIndex, minSalePriceInWei, toAddress);\n      \n  }\n  \n  \n  function buyCoin(uint _coinIndex) public payable{\n        Coin memory coin = coins[_coinIndex];\n        if (!coin.isForSale) revert();                // coin not actually for sale\n        if (coin.onlySellTo != address(0) && coin.onlySellTo != msg.sender) revert();  // coin not supposed to be sold to this user\n        if (msg.value < coin.minValueOffer) revert();      // Didn't send enough ETH\n        if (coin.owner != ownerOf(_coinIndex)) revert();\n\n        address seller = coin.owner;\n\n        _transfer(seller,msg.sender,_coinIndex);\n        CoinNoLongerForSale(_coinIndex);\n        pendingWithdrawals[seller] += msg.value;\n\n        // Check for the case where there is a bid from the new owner and refund it.\n        // Any other bid can stay in place.\n        if (coin.bidder == msg.sender) {\n            // Kill bid and refund value\n            pendingWithdrawals[msg.sender] += coin.valueBid;\n            coins[_coinIndex].hasBid=false;\n            coins[_coinIndex].bidder=address(0);\n            coins[_coinIndex].valueBid= 0;\n        }\n  }\n  \n  function transferCoin(address to, uint _coinIndex) public{\n        if (ownerOf(_coinIndex) != msg.sender) revert();                // coin not actually for sale\n        if (coins[_coinIndex].isForSale) {\n            CoinNoLongerForSale(_coinIndex);\n        }\n        \n        safeTransferFrom(msg.sender, to, _coinIndex);\n\n        // Check for the case where there is a bid from the new owner and refund it.\n        // Any other bid can stay in place.\n        Coin memory coin = coins[_coinIndex];\n        if (coin.bidder == to) {\n            // Kill bid and refund value\n            pendingWithdrawals[msg.sender] += coin.valueBid;\n            coins[_coinIndex].hasBid=false;\n            coins[_coinIndex].bidder= address(0);\n            coins[_coinIndex].valueBid=0;\n        }\n  }\n  function withdraw() public{\n        uint amount = pendingWithdrawals[msg.sender];\n        // Remember to zero the pending refund before\n        // sending to prevent re-entrancy attacks\n        pendingWithdrawals[msg.sender] = 0;\n        msg.sender.transfer(amount);\n    }\n  function enterBidForCoin(uint _coinIndex) public payable {\n        if (ownerOf(_coinIndex) == address(0)) revert();\n        if (ownerOf(_coinIndex) == msg.sender) revert();\n        if (msg.value == 0) revert();\n        Coin memory existing = coins[_coinIndex];\n        if (msg.value <= existing.valueBid) revert();\n        if (existing.valueBid > 0) {\n            // Refund the failing bid\n            pendingWithdrawals[existing.bidder] += existing.valueBid;\n        }\n        coins[_coinIndex].hasBid=true; \n        coins[_coinIndex].bidder= msg.sender; \n        coins[_coinIndex].valueBid=msg.value;\n        CoinBidEntered(_coinIndex, msg.value, msg.sender);\n    }\n    \n    function acceptBidForCoin(uint _coinIndex, uint minPrice) public{\n               \n        if (ownerOf(_coinIndex) != msg.sender) revert();\n        address seller = msg.sender;\n        Coin memory coin = coins[_coinIndex];\n        if (coin.valueBid == 0) revert();\n        if (coin.valueBid < minPrice) revert();\n        \n        safeTransferFrom(msg.sender, coin.bidder, _coinIndex);\n\n        uint amount = coin.valueBid;\n        coins[_coinIndex].owner= coin.bidder;\n        coins[_coinIndex].isForSale=false;\n        coins[_coinIndex].hasBid=false;\n        coins[_coinIndex].bidder=address(0);\n        coins[_coinIndex].valueBid= 0;\n        coins[_coinIndex].onlySellTo=address(0);\n        pendingWithdrawals[seller] += amount;\n        CoinBought(_coinIndex, coin.valueBid, seller, coin.bidder);\n    }\n\n    function withdrawBidForCoin(uint _coinIndex) public{\n        if (ownerOf(_coinIndex) == address(0)) revert();\n        if (ownerOf(_coinIndex) == msg.sender) revert();\n        Coin memory coin = coins[_coinIndex];\n        if (coin.bidder != msg.sender) revert();\n        CoinBidWithdrawn(_coinIndex, coin.valueBid, msg.sender);\n        uint amount = coin.valueBid;\n        coins[_coinIndex].hasBid=false;\n        coins[_coinIndex].bidder=address(0);\n        coins[_coinIndex].valueBid=0;\n        // Refund the bid money\n        msg.sender.transfer(amount);\n    }\n\n    function getCoinsByAddress(address _user) public view returns (uint256[] memory) {\n        uint balanceOfUser;\n        \n        balanceOfUser= balanceOf(_user);\n        \n        uint [] memory allCoinsByUser = new uint[](balanceOfUser);\n        for (uint i=0; i<balanceOfUser;i++){\n            uint coinIndex;\n            coinIndex=tokenOfOwnerByIndex(_user,i);\n            allCoinsByUser[i]=coinIndex;\n        }\n        return allCoinsByUser;\n        \n    }\n        \n    function getAllCoinsOnSale() public view returns (uint256[] memory) {\n        uint totToken;\n        totToken= totalSupply();\n        \n        uint [] memory allCoinsOnSale = new uint[](totToken);\n        for (uint i=0; i<totToken;i++){\n            if (coins[i].isForSale == true) allCoinsOnSale[i]=coins[i].coinIndex;\n             }\n        return allCoinsOnSale;\n \n    }\n    \n    function getAllCoins() public view returns (Coin[] memory _coins) {\n        return coins;\n    }\n\n    \n}",
  "sourcePath": "/Users/giorgiopietramala/Documents/GitHub/NFTMarketplace-g/contracts/NFTBasic.sol",
  "compiler": {
    "name": "solc",
    "version": "0.7.0+commit.9e61f92b.Emscripten.clang"
  },
  "schemaVersion": "3.3.4",
  "updatedAt": "2021-06-12T19:35:50.023Z",
  "devdoc": {
    "kind": "dev",
    "methods": {
      "approve(address,uint256)": {
        "details": "See {IERC721-approve}."
      },
      "balanceOf(address)": {
        "details": "See {IERC721-balanceOf}."
      },
      "baseURI()": {
        "details": "Returns the base URI set via {_setBaseURI}. This will be automatically added as a prefix in {tokenURI} to each token's URI, or to the token ID if no specific URI is set for that token ID."
      },
      "getApproved(uint256)": {
        "details": "See {IERC721-getApproved}."
      },
      "isApprovedForAll(address,address)": {
        "details": "See {IERC721-isApprovedForAll}."
      },
      "name()": {
        "details": "See {IERC721Metadata-name}."
      },
      "owner()": {
        "details": "Returns the address of the current owner."
      },
      "ownerOf(uint256)": {
        "details": "See {IERC721-ownerOf}."
      },
      "renounceOwnership()": {
        "details": "Leaves the contract without owner. It will not be possible to call `onlyOwner` functions anymore. Can only be called by the current owner. NOTE: Renouncing ownership will leave the contract without an owner, thereby removing any functionality that is only available to the owner."
      },
      "safeTransferFrom(address,address,uint256)": {
        "details": "See {IERC721-safeTransferFrom}."
      },
      "safeTransferFrom(address,address,uint256,bytes)": {
        "details": "See {IERC721-safeTransferFrom}."
      },
      "setApprovalForAll(address,bool)": {
        "details": "See {IERC721-setApprovalForAll}."
      },
      "supportsInterface(bytes4)": {
        "details": "See {IERC165-supportsInterface}. Time complexity O(1), guaranteed to always use less than 30 000 gas."
      },
      "symbol()": {
        "details": "See {IERC721Metadata-symbol}."
      },
      "tokenByIndex(uint256)": {
        "details": "See {IERC721Enumerable-tokenByIndex}."
      },
      "tokenOfOwnerByIndex(address,uint256)": {
        "details": "See {IERC721Enumerable-tokenOfOwnerByIndex}."
      },
      "tokenURI(uint256)": {
        "details": "See {IERC721Metadata-tokenURI}."
      },
      "totalSupply()": {
        "details": "See {IERC721Enumerable-totalSupply}."
      },
      "transferFrom(address,address,uint256)": {
        "details": "See {IERC721-transferFrom}."
      },
      "transferOwnership(address)": {
        "details": "Transfers ownership of the contract to a new account (`newOwner`). Can only be called by the current owner."
      }
    },
    "version": 1
  },
  "userdoc": {
    "kind": "user",
    "methods": {},
    "version": 1
  }
}