{
  "contractName": "NFTBasicV1",
  "abi": [
    {
      "inputs": [],
      "stateMutability": "nonpayable",
      "type": "constructor"
    },
    {
      "anonymous": false,
      "inputs": [
        {
          "indexed": true,
          "internalType": "address",
          "name": "owner",
          "type": "address"
        },
        {
          "indexed": true,
          "internalType": "address",
          "name": "approved",
          "type": "address"
        },
        {
          "indexed": true,
          "internalType": "uint256",
          "name": "tokenId",
          "type": "uint256"
        }
      ],
      "name": "Approval",
      "type": "event"
    },
    {
      "anonymous": false,
      "inputs": [
        {
          "indexed": true,
          "internalType": "address",
          "name": "owner",
          "type": "address"
        },
        {
          "indexed": true,
          "internalType": "address",
          "name": "operator",
          "type": "address"
        },
        {
          "indexed": false,
          "internalType": "bool",
          "name": "approved",
          "type": "bool"
        }
      ],
      "name": "ApprovalForAll",
      "type": "event"
    },
    {
      "anonymous": false,
      "inputs": [
        {
          "indexed": false,
          "internalType": "uint256",
          "name": "coinIndex",
          "type": "uint256"
        },
        {
          "indexed": false,
          "internalType": "uint256",
          "name": "value",
          "type": "uint256"
        },
        {
          "indexed": false,
          "internalType": "address",
          "name": "fromAddress",
          "type": "address"
        }
      ],
      "name": "CoinBidEntered",
      "type": "event"
    },
    {
      "anonymous": false,
      "inputs": [
        {
          "indexed": false,
          "internalType": "uint256",
          "name": "coinIndex",
          "type": "uint256"
        },
        {
          "indexed": false,
          "internalType": "uint256",
          "name": "value",
          "type": "uint256"
        },
        {
          "indexed": false,
          "internalType": "address",
          "name": "fromAddress",
          "type": "address"
        }
      ],
      "name": "CoinBidWithdrawn",
      "type": "event"
    },
    {
      "anonymous": false,
      "inputs": [
        {
          "indexed": false,
          "internalType": "uint256",
          "name": "coinIndex",
          "type": "uint256"
        },
        {
          "indexed": false,
          "internalType": "uint256",
          "name": "value",
          "type": "uint256"
        },
        {
          "indexed": false,
          "internalType": "address",
          "name": "fromAddress",
          "type": "address"
        },
        {
          "indexed": false,
          "internalType": "address",
          "name": "toAddress",
          "type": "address"
        }
      ],
      "name": "CoinBought",
      "type": "event"
    },
    {
      "anonymous": false,
      "inputs": [
        {
          "indexed": false,
          "internalType": "uint256",
          "name": "coinIndex",
          "type": "uint256"
        }
      ],
      "name": "CoinNoMoreForSale",
      "type": "event"
    },
    {
      "anonymous": false,
      "inputs": [
        {
          "indexed": false,
          "internalType": "uint256",
          "name": "coinIndex",
          "type": "uint256"
        },
        {
          "indexed": false,
          "internalType": "uint256",
          "name": "minPrice",
          "type": "uint256"
        },
        {
          "indexed": false,
          "internalType": "address",
          "name": "toAddress",
          "type": "address"
        }
      ],
      "name": "CoinOffered",
      "type": "event"
    },
    {
      "anonymous": false,
      "inputs": [
        {
          "indexed": true,
          "internalType": "address",
          "name": "previousOwner",
          "type": "address"
        },
        {
          "indexed": true,
          "internalType": "address",
          "name": "newOwner",
          "type": "address"
        }
      ],
      "name": "OwnershipTransferred",
      "type": "event"
    },
    {
      "anonymous": false,
      "inputs": [
        {
          "indexed": true,
          "internalType": "address",
          "name": "from",
          "type": "address"
        },
        {
          "indexed": true,
          "internalType": "address",
          "name": "to",
          "type": "address"
        },
        {
          "indexed": true,
          "internalType": "uint256",
          "name": "tokenId",
          "type": "uint256"
        }
      ],
      "name": "Transfer",
      "type": "event"
    },
    {
      "inputs": [
        {
          "internalType": "address",
          "name": "to",
          "type": "address"
        },
        {
          "internalType": "uint256",
          "name": "tokenId",
          "type": "uint256"
        }
      ],
      "name": "approve",
      "outputs": [],
      "stateMutability": "nonpayable",
      "type": "function"
    },
    {
      "inputs": [
        {
          "internalType": "address",
          "name": "owner",
          "type": "address"
        }
      ],
      "name": "balanceOf",
      "outputs": [
        {
          "internalType": "uint256",
          "name": "",
          "type": "uint256"
        }
      ],
      "stateMutability": "view",
      "type": "function",
      "constant": true
    },
    {
      "inputs": [],
      "name": "baseURI",
      "outputs": [
        {
          "internalType": "string",
          "name": "",
          "type": "string"
        }
      ],
      "stateMutability": "view",
      "type": "function",
      "constant": true
    },
    {
      "inputs": [
        {
          "internalType": "uint256",
          "name": "",
          "type": "uint256"
        }
      ],
      "name": "coinBids",
      "outputs": [
        {
          "internalType": "bool",
          "name": "hasBid",
          "type": "bool"
        },
        {
          "internalType": "uint256",
          "name": "coinIndex",
          "type": "uint256"
        },
        {
          "internalType": "address",
          "name": "bidder",
          "type": "address"
        },
        {
          "internalType": "uint256",
          "name": "value",
          "type": "uint256"
        }
      ],
      "stateMutability": "view",
      "type": "function",
      "constant": true
    },
    {
      "inputs": [
        {
          "internalType": "uint256",
          "name": "",
          "type": "uint256"
        }
      ],
      "name": "coins",
      "outputs": [
        {
          "internalType": "uint256",
          "name": "coinIndex",
          "type": "uint256"
        },
        {
          "internalType": "string",
          "name": "nameOfCoin",
          "type": "string"
        },
        {
          "internalType": "string",
          "name": "ipfsHash",
          "type": "string"
        }
      ],
      "stateMutability": "view",
      "type": "function",
      "constant": true
    },
    {
      "inputs": [
        {
          "internalType": "uint256",
          "name": "",
          "type": "uint256"
        }
      ],
      "name": "coinsOfferedForSale",
      "outputs": [
        {
          "internalType": "bool",
          "name": "isForSale",
          "type": "bool"
        },
        {
          "internalType": "uint256",
          "name": "coinIndex",
          "type": "uint256"
        },
        {
          "internalType": "address",
          "name": "seller",
          "type": "address"
        },
        {
          "internalType": "uint256",
          "name": "minValue",
          "type": "uint256"
        },
        {
          "internalType": "address",
          "name": "onlySellTo",
          "type": "address"
        }
      ],
      "stateMutability": "view",
      "type": "function",
      "constant": true
    },
    {
      "inputs": [
        {
          "internalType": "uint256",
          "name": "tokenId",
          "type": "uint256"
        }
      ],
      "name": "getApproved",
      "outputs": [
        {
          "internalType": "address",
          "name": "",
          "type": "address"
        }
      ],
      "stateMutability": "view",
      "type": "function",
      "constant": true
    },
    {
      "inputs": [
        {
          "internalType": "address",
          "name": "owner",
          "type": "address"
        },
        {
          "internalType": "address",
          "name": "operator",
          "type": "address"
        }
      ],
      "name": "isApprovedForAll",
      "outputs": [
        {
          "internalType": "bool",
          "name": "",
          "type": "bool"
        }
      ],
      "stateMutability": "view",
      "type": "function",
      "constant": true
    },
    {
      "inputs": [],
      "name": "name",
      "outputs": [
        {
          "internalType": "string",
          "name": "",
          "type": "string"
        }
      ],
      "stateMutability": "view",
      "type": "function",
      "constant": true
    },
    {
      "inputs": [],
      "name": "owner",
      "outputs": [
        {
          "internalType": "address",
          "name": "",
          "type": "address"
        }
      ],
      "stateMutability": "view",
      "type": "function",
      "constant": true
    },
    {
      "inputs": [
        {
          "internalType": "uint256",
          "name": "tokenId",
          "type": "uint256"
        }
      ],
      "name": "ownerOf",
      "outputs": [
        {
          "internalType": "address",
          "name": "",
          "type": "address"
        }
      ],
      "stateMutability": "view",
      "type": "function",
      "constant": true
    },
    {
      "inputs": [
        {
          "internalType": "address",
          "name": "",
          "type": "address"
        }
      ],
      "name": "pendingWithdrawals",
      "outputs": [
        {
          "internalType": "uint256",
          "name": "",
          "type": "uint256"
        }
      ],
      "stateMutability": "view",
      "type": "function",
      "constant": true
    },
    {
      "inputs": [],
      "name": "renounceOwnership",
      "outputs": [],
      "stateMutability": "nonpayable",
      "type": "function"
    },
    {
      "inputs": [
        {
          "internalType": "address",
          "name": "from",
          "type": "address"
        },
        {
          "internalType": "address",
          "name": "to",
          "type": "address"
        },
        {
          "internalType": "uint256",
          "name": "tokenId",
          "type": "uint256"
        }
      ],
      "name": "safeTransferFrom",
      "outputs": [],
      "stateMutability": "nonpayable",
      "type": "function"
    },
    {
      "inputs": [
        {
          "internalType": "address",
          "name": "from",
          "type": "address"
        },
        {
          "internalType": "address",
          "name": "to",
          "type": "address"
        },
        {
          "internalType": "uint256",
          "name": "tokenId",
          "type": "uint256"
        },
        {
          "internalType": "bytes",
          "name": "_data",
          "type": "bytes"
        }
      ],
      "name": "safeTransferFrom",
      "outputs": [],
      "stateMutability": "nonpayable",
      "type": "function"
    },
    {
      "inputs": [
        {
          "internalType": "address",
          "name": "operator",
          "type": "address"
        },
        {
          "internalType": "bool",
          "name": "approved",
          "type": "bool"
        }
      ],
      "name": "setApprovalForAll",
      "outputs": [],
      "stateMutability": "nonpayable",
      "type": "function"
    },
    {
      "inputs": [
        {
          "internalType": "bytes4",
          "name": "interfaceId",
          "type": "bytes4"
        }
      ],
      "name": "supportsInterface",
      "outputs": [
        {
          "internalType": "bool",
          "name": "",
          "type": "bool"
        }
      ],
      "stateMutability": "view",
      "type": "function",
      "constant": true
    },
    {
      "inputs": [],
      "name": "symbol",
      "outputs": [
        {
          "internalType": "string",
          "name": "",
          "type": "string"
        }
      ],
      "stateMutability": "view",
      "type": "function",
      "constant": true
    },
    {
      "inputs": [
        {
          "internalType": "uint256",
          "name": "index",
          "type": "uint256"
        }
      ],
      "name": "tokenByIndex",
      "outputs": [
        {
          "internalType": "uint256",
          "name": "",
          "type": "uint256"
        }
      ],
      "stateMutability": "view",
      "type": "function",
      "constant": true
    },
    {
      "inputs": [
        {
          "internalType": "address",
          "name": "owner",
          "type": "address"
        },
        {
          "internalType": "uint256",
          "name": "index",
          "type": "uint256"
        }
      ],
      "name": "tokenOfOwnerByIndex",
      "outputs": [
        {
          "internalType": "uint256",
          "name": "",
          "type": "uint256"
        }
      ],
      "stateMutability": "view",
      "type": "function",
      "constant": true
    },
    {
      "inputs": [
        {
          "internalType": "uint256",
          "name": "tokenId",
          "type": "uint256"
        }
      ],
      "name": "tokenURI",
      "outputs": [
        {
          "internalType": "string",
          "name": "",
          "type": "string"
        }
      ],
      "stateMutability": "view",
      "type": "function",
      "constant": true
    },
    {
      "inputs": [],
      "name": "totalSupply",
      "outputs": [
        {
          "internalType": "uint256",
          "name": "",
          "type": "uint256"
        }
      ],
      "stateMutability": "view",
      "type": "function",
      "constant": true
    },
    {
      "inputs": [
        {
          "internalType": "address",
          "name": "from",
          "type": "address"
        },
        {
          "internalType": "address",
          "name": "to",
          "type": "address"
        },
        {
          "internalType": "uint256",
          "name": "tokenId",
          "type": "uint256"
        }
      ],
      "name": "transferFrom",
      "outputs": [],
      "stateMutability": "nonpayable",
      "type": "function"
    },
    {
      "inputs": [
        {
          "internalType": "address",
          "name": "newOwner",
          "type": "address"
        }
      ],
      "name": "transferOwnership",
      "outputs": [],
      "stateMutability": "nonpayable",
      "type": "function"
    },
    {
      "inputs": [
        {
          "internalType": "string",
          "name": "_nameOfCoin",
          "type": "string"
        },
        {
          "internalType": "string",
          "name": "_ipfsHash",
          "type": "string"
        }
      ],
      "name": "preMint",
      "outputs": [],
      "stateMutability": "nonpayable",
      "type": "function"
    },
    {
      "inputs": [],
      "name": "BuyNewCoin",
      "outputs": [],
      "stateMutability": "payable",
      "type": "function",
      "payable": true
    },
    {
      "inputs": [
        {
          "internalType": "uint256",
          "name": "_coinIndex",
          "type": "uint256"
        }
      ],
      "name": "CoinNoLongerForSale",
      "outputs": [],
      "stateMutability": "nonpayable",
      "type": "function"
    },
    {
      "inputs": [
        {
          "internalType": "uint256",
          "name": "_coinIndex",
          "type": "uint256"
        },
        {
          "internalType": "uint256",
          "name": "minSalePriceInWei",
          "type": "uint256"
        }
      ],
      "name": "offerCoinForSale",
      "outputs": [],
      "stateMutability": "nonpayable",
      "type": "function"
    },
    {
      "inputs": [
        {
          "internalType": "uint256",
          "name": "_coinIndex",
          "type": "uint256"
        },
        {
          "internalType": "uint256",
          "name": "minSalePriceInWei",
          "type": "uint256"
        },
        {
          "internalType": "address",
          "name": "toAddress",
          "type": "address"
        }
      ],
      "name": "offerCoinForSaleToAddress",
      "outputs": [],
      "stateMutability": "nonpayable",
      "type": "function"
    },
    {
      "inputs": [
        {
          "internalType": "uint256",
          "name": "_coinIndex",
          "type": "uint256"
        }
      ],
      "name": "buyCoin",
      "outputs": [],
      "stateMutability": "payable",
      "type": "function",
      "payable": true
    },
    {
      "inputs": [
        {
          "internalType": "address",
          "name": "to",
          "type": "address"
        },
        {
          "internalType": "uint256",
          "name": "_coinIndex",
          "type": "uint256"
        }
      ],
      "name": "transferCoin",
      "outputs": [],
      "stateMutability": "nonpayable",
      "type": "function"
    },
    {
      "inputs": [],
      "name": "withdraw",
      "outputs": [],
      "stateMutability": "nonpayable",
      "type": "function"
    },
    {
      "inputs": [
        {
          "internalType": "uint256",
          "name": "_coinIndex",
          "type": "uint256"
        }
      ],
      "name": "enterBidForCoin",
      "outputs": [],
      "stateMutability": "payable",
      "type": "function",
      "payable": true
    },
    {
      "inputs": [
        {
          "internalType": "uint256",
          "name": "_coinIndex",
          "type": "uint256"
        },
        {
          "internalType": "uint256",
          "name": "minPrice",
          "type": "uint256"
        }
      ],
      "name": "acceptBidForCoin",
      "outputs": [],
      "stateMutability": "nonpayable",
      "type": "function"
    },
    {
      "inputs": [
        {
          "internalType": "uint256",
          "name": "_coinIndex",
          "type": "uint256"
        }
      ],
      "name": "withdrawBidForCoin",
      "outputs": [],
      "stateMutability": "nonpayable",
      "type": "function"
    },
    {
      "inputs": [
        {
          "internalType": "address",
          "name": "_user",
          "type": "address"
        }
      ],
      "name": "getCoinsByAddress",
      "outputs": [
        {
          "internalType": "uint256[]",
          "name": "",
          "type": "uint256[]"
        }
      ],
      "stateMutability": "view",
      "type": "function",
      "constant": true
    },
    {
      "inputs": [],
      "name": "getAllCoinsOnSale",
      "outputs": [
        {
          "internalType": "uint256[]",
          "name": "",
          "type": "uint256[]"
        }
      ],
      "stateMutability": "view",
      "type": "function",
      "constant": true
    },
    {
      "inputs": [],
      "name": "getAllCoins",
      "outputs": [
        {
          "components": [
            {
              "internalType": "uint256",
              "name": "coinIndex",
              "type": "uint256"
            },
            {
              "internalType": "string",
              "name": "nameOfCoin",
              "type": "string"
            },
            {
              "internalType": "string",
              "name": "ipfsHash",
              "type": "string"
            }
          ],
          "internalType": "struct NFTBasicV1.Coin[]",
          "name": "_coins",
          "type": "tuple[]"
        }
      ],
      "stateMutability": "view",
      "type": "function",
      "constant": true
    }
  ],
  "bytecode": "0x60806040523480156200001157600080fd5b506040805180820182526008815267436f696e6173747960c01b60208083019190915282518084019093526005835264434e53545960d81b9083015290620000606301ffc9a760e01b62000137565b81516200007590600690602085019062000196565b5080516200008b90600790602084019062000196565b506200009e6380ac58cd60e01b62000137565b620000b0635b5e139f60e01b62000137565b620000c263780e9d6360e01b62000137565b5060009050620000d162000192565b600a80546001600160a01b0319166001600160a01b038316908117909155604051919250906000907f8be0079c531659141344cd1fd0a4f28419497f9722a3daafe3b4186f6b6457e0908290a350600c80546001600160a01b0319163317905562000269565b6001600160e01b031980821614156200016d5760405162461bcd60e51b8152600401620001649062000232565b60405180910390fd5b6001600160e01b0319166000908152602081905260409020805460ff19166001179055565b3390565b828054600181600116156101000203166002900490600052602060002090601f016020900481019282601f10620001d957805160ff191683800117855562000209565b8280016001018555821562000209579182015b8281111562000209578251825591602001919060010190620001ec565b50620002179291506200021b565b5090565b5b808211156200021757600081556001016200021c565b6020808252601c908201527f4552433136353a20696e76616c696420696e7465726661636520696400000000604082015260600190565b61357d80620002796000396000f3fe6080604052600436106102255760003560e01c8063715018a611610123578063a6079873116100ab578063d92b36001161006f578063d92b360014610646578063e28ee9ab14610676578063e985e9c51461067e578063f2fde38b1461069e578063f3f43703146106be57610225565b8063a607987314610586578063b88d4fde146105b7578063c6610657146105d7578063c87b56dd14610606578063cbb828521461062657610225565b80638dde60fa116100f25780638dde60fa146104ef57806395d89b411461050f578063977ff72914610524578063a22cb46514610544578063a4ec06201461056457610225565b8063715018a61461049d57806387686204146104b257806387792574146104c75780638da5cb5b146104da57610225565b80633ccfd60b116101b157806351952d421161017557806351952d421461040857806355f8dc69146104285780636352211e146104485780636c0360eb1461046857806370a082311461047d57610225565b80633ccfd60b14610373578063416d0cf81461038857806342842e0e1461039b5780634ecd4bc1146103bb5780634f6ccce7146103e857610225565b806318160ddd116101f857806318160ddd146102d157806318f500a3146102f35780631949309f1461031357806323b872dd146103335780632f745c591461035357610225565b806301ffc9a71461022a57806306fdde0314610260578063081812fc14610282578063095ea7b3146102af575b600080fd5b34801561023657600080fd5b5061024a610245366004612bd8565b6106de565b6040516102579190612ece565b60405180910390f35b34801561026c57600080fd5b50610275610701565b6040516102579190612f2d565b34801561028e57600080fd5b506102a261029d366004612c71565b610797565b6040516102579190612dab565b3480156102bb57600080fd5b506102cf6102ca366004612bae565b6107e3565b005b3480156102dd57600080fd5b506102e661087b565b6040516102579190613418565b3480156102ff57600080fd5b506102cf61030e366004612c10565b61088c565b34801561031f57600080fd5b506102cf61032e366004612c71565b610980565b34801561033f57600080fd5b506102cf61034e366004612acb565b610afc565b34801561035f57600080fd5b506102e661036e366004612bae565b610b34565b34801561037f57600080fd5b506102cf610b5f565b6102cf610396366004612c71565b610ba4565b3480156103a757600080fd5b506102cf6103b6366004612acb565b610d38565b3480156103c757600080fd5b506103db6103d6366004612a7c565b610d53565b6040516102579190612e8a565b3480156103f457600080fd5b506102e6610403366004612c71565b610dea565b34801561041457600080fd5b506102cf610423366004612c71565b610df8565b34801561043457600080fd5b506102cf610443366004612c89565b610ed8565b34801561045457600080fd5b506102a2610463366004612c71565b610fb5565b34801561047457600080fd5b50610275610fdd565b34801561048957600080fd5b506102e6610498366004612a7c565b61103e565b3480156104a957600080fd5b506102cf611087565b3480156104be57600080fd5b506103db611106565b6102cf6104d5366004612c71565b6111bd565b3480156104e657600080fd5b506102a26113bf565b3480156104fb57600080fd5b506102cf61050a366004612bae565b6113ce565b34801561051b57600080fd5b50610275611505565b34801561053057600080fd5b506102cf61053f366004612caa565b611566565b34801561055057600080fd5b506102cf61055f366004612b73565b611655565b34801561057057600080fd5b50610579611723565b6040516102579190612dfc565b34801561059257600080fd5b506105a66105a1366004612c71565b6118c0565b604051610257959493929190612eff565b3480156105c357600080fd5b506102cf6105d2366004612b0b565b6118fe565b3480156105e357600080fd5b506105f76105f2366004612c71565b611937565b60405161025793929190613421565b34801561061257600080fd5b50610275610621366004612c71565b611a92565b34801561063257600080fd5b506102cf610641366004612c89565b611bdc565b34801561065257600080fd5b50610666610661366004612c71565b611e91565b6040516102579493929190612ed9565b6102cf611ec8565b34801561068a57600080fd5b5061024a610699366004612a97565b611eca565b3480156106aa57600080fd5b506102cf6106b9366004612a7c565b611ef8565b3480156106ca57600080fd5b506102e66106d9366004612a7c565b611faf565b6001600160e01b0319811660009081526020819052604090205460ff165b919050565b60068054604080516020601f600260001961010060018816150201909516949094049384018190048102820181019092528281526060939092909183018282801561078d5780601f106107625761010080835404028352916020019161078d565b820191906000526020600020905b81548152906001019060200180831161077057829003601f168201915b5050505050905090565b60006107a282611fc1565b6107c75760405162461bcd60e51b81526004016107be90613236565b60405180910390fd5b506000908152600460205260409020546001600160a01b031690565b60006107ee82610fb5565b9050806001600160a01b0316836001600160a01b031614156108225760405162461bcd60e51b81526004016107be9061334f565b806001600160a01b0316610834611fce565b6001600160a01b03161480610850575061085081610699611fce565b61086c5760405162461bcd60e51b81526004016107be90613118565b6108768383611fd2565b505050565b60006108876002612040565b905090565b600c546001600160a01b031633146108a357600080fd5b6010546108ae6128d2565b506040805160608101825282815260208082018681529282018590526010805460018101825560009190915282517f1b6847dc741a1b0cd08d278845f9d819d87b734759afb55fe2de5cb82a9ae672600390920291820190815593518051939485949093610940937f1b6847dc741a1b0cd08d278845f9d819d87b734759afb55fe2de5cb82a9ae673019201906128f3565b506040820151805161095c9160028401916020909101906128f3565b505050610969338361204b565b61097a82662386f26fc10000610ed8565b50505050565b600061098b82610fb5565b6001600160a01b0316141561099f57600080fd5b336109a982610fb5565b6001600160a01b031614156109bd57600080fd5b6109c5612971565b506000818152600e60209081526040918290208251608081018452815460ff161515815260018201549281019290925260028101546001600160a01b0316928201839052600301546060820152903314610a1e57600080fd5b7fee14cf4458bda20cc2dd75ee4de3b15ea05d006c903359cf2eb1f46c057bc9cf82826060015133604051610a559392919061344c565b60405180910390a16060818101516040805160808101825260008082526020808301888152838501838152968401838152898452600e9092528483209351845460ff191690151517845551600184015594516002830180546001600160a01b0319166001600160a01b03909216919091179055935160039091015551909133916108fc84150291849190818181858888f1935050505015801561097a573d6000803e3d6000fd5b610b0d610b07611fce565b8261210f565b610b295760405162461bcd60e51b81526004016107be90613390565b610876838383612194565b6001600160a01b0382166000908152600160205260408120610b5690836122a2565b90505b92915050565b336000818152600f6020526040808220805490839055905190929183156108fc02918491818181858888f19350505050158015610ba0573d6000803e3d6000fd5b5050565b6000610baf82610fb5565b6001600160a01b03161415610bc357600080fd5b33610bcd82610fb5565b6001600160a01b03161415610be157600080fd5b34610beb57600080fd5b610bf3612971565b506000818152600e60209081526040918290208251608081018452815460ff161515815260018201549281019290925260028101546001600160a01b031692820192909252600390910154606082018190523411610c5057600080fd5b606081015115610c815760608101516040808301516001600160a01b03166000908152600f60205220805490910190555b604080516080810182526001808252602080830186815233848601818152346060870181815260008b8152600e909652948890209651875460ff191690151517875592519486019490945592516002850180546001600160a01b0319166001600160a01b03909216919091179055905160039093019290925591517f27ebeab224541b64dff25b03217825ac2f73fa8f646dc7b5f054ca2aa49b353b92610d2c92869290919061344c565b60405180910390a15050565b610876838383604051806020016040528060008152506118fe565b60606000610d608361103e565b905060608167ffffffffffffffff81118015610d7b57600080fd5b50604051908082528060200260200182016040528015610da5578160200160208202803683370190505b50905060005b82811015610de2576000610dbf8683610b34565b905080838381518110610dce57fe5b602090810291909101015250600101610dab565b509392505050565b600080610de26002846122ae565b33610e0282610fb5565b6001600160a01b031614610e1557600080fd5b6040805160a08101825260008082526020808301858152338486019081526060850184815260808601858152888652600d909452938690209451855460ff191690151517855590516001850155516002840180546001600160a01b03199081166001600160a01b0393841617909155925160038501559051600490930180549092169216919091179055517fa36082812d8b74923675a917272061132076a19be27a2ff0af345789fcb875c590610ecd908390613418565b60405180910390a150565b33610ee283610fb5565b6001600160a01b031614610ef557600080fd5b6040805160a0810182526001808252602080830186815233848601908152606085018781526000608087018181528a8252600d9095528781209651875460ff1916901515178755925194860194909455516002850180546001600160a01b03199081166001600160a01b0393841617909155935160038601559151600490940180549093169390911692909217905590517fb93c24edbc654401ba92e865b581b55624669f98eacad7128b8f59bbdf55cd6691610d2c918591859161344c565b6000610b598260405180606001604052806029815260200161351f60299139600291906122ca565b60098054604080516020601f600260001961010060018816150201909516949094049384018190048102820181019092528281526060939092909183018282801561078d5780601f106107625761010080835404028352916020019161078d565b60006001600160a01b0382166110665760405162461bcd60e51b81526004016107be90613175565b6001600160a01b0382166000908152600160205260409020610b5990612040565b61108f611fce565b600a546001600160a01b039081169116146110bc5760405162461bcd60e51b81526004016107be90613282565b600a546040516000916001600160a01b0316907f8be0079c531659141344cd1fd0a4f28419497f9722a3daafe3b4186f6b6457e0908390a3600a80546001600160a01b0319169055565b6060600061111261087b565b905060608167ffffffffffffffff8111801561112d57600080fd5b50604051908082528060200260200182016040528015611157578160200160208202803683370190505b50905060005b828110156111b6576000818152600d602052604090205460ff161515600114156111ae576000818152600d602052604090206001015482518390839081106111a157fe5b6020026020010181815250505b60010161115d565b5091505090565b6111c56129a4565b506000818152600d6020908152604091829020825160a081018452815460ff16151580825260018301549382019390935260028201546001600160a01b039081169482019490945260038201546060820152600490910154909216608083015261122e57600080fd5b60808101516001600160a01b031615801590611257575060808101516001600160a01b03163314155b1561126157600080fd5b806060015134101561127257600080fd5b61127b82610fb5565b6001600160a01b031681604001516001600160a01b03161461129c57600080fd5b60408101516112ac813385612194565b6112b583610df8565b6001600160a01b0381166000908152600f602052604090208054340190556112db612971565b506000838152600e60209081526040918290208251608081018452815460ff161515815260018201549281019290925260028101546001600160a01b03169282018390526003015460608201529033141561097a57606090810151336000908152600f6020908152604080832080549094019093558251608081018452828152808201888152818501848152958201848152988452600e909252929091209151825460ff191690151517825551600182015590516002820180546001600160a01b0319166001600160a01b0390921691909117905592516003909301929092555050565b600a546001600160a01b031690565b336113d882610fb5565b6001600160a01b0316146113eb57600080fd5b6000818152600d602052604090205460ff161561140b5761140b81610df8565b611416338383610d38565b61141e612971565b506000818152600e60209081526040918290208251608081018452815460ff161515815260018201549281019290925260028101546001600160a01b0390811693830184905260039091015460608301529091908416141561087657606090810151336000908152600f6020908152604080832080549094019093558251608081018452828152808201868152818501848152958201848152968452600e909252929091209151825460ff191690151517825551600182015590516002820180546001600160a01b0319166001600160a01b03909216919091179055905160039091015550565b60078054604080516020601f600260001961010060018816150201909516949094049384018190048102820181019092528281526060939092909183018282801561078d5780601f106107625761010080835404028352916020019161078d565b3361157084610fb5565b6001600160a01b03161461158357600080fd5b6040805160a0810182526001808252602080830187815233848601908152606085018881526001600160a01b038881166080880190815260008c8152600d909652948890209651875460ff1916901515178755925194860194909455516002850180546001600160a01b0319908116928416929092179055925160038501559051600490930180549092169216919091179055517fb93c24edbc654401ba92e865b581b55624669f98eacad7128b8f59bbdf55cd66906116489085908590859061344c565b60405180910390a1505050565b61165d611fce565b6001600160a01b0316826001600160a01b0316141561168e5760405162461bcd60e51b81526004016107be90613095565b806005600061169b611fce565b6001600160a01b03908116825260208083019390935260409182016000908120918716808252919093529120805460ff1916921515929092179091556116df611fce565b6001600160a01b03167f17307eab39ab6107e8899845ad3d59bd9653f200f220920489ca2b5937696c31836040516117179190612ece565b60405180910390a35050565b60606010805480602002602001604051908101604052809291908181526020016000905b828210156118b7578382906000526020600020906003020160405180606001604052908160008201548152602001600182018054600181600116156101000203166002900480601f01602080910402602001604051908101604052809291908181526020018280546001816001161561010002031660029004801561180d5780601f106117e25761010080835404028352916020019161180d565b820191906000526020600020905b8154815290600101906020018083116117f057829003601f168201915b5050509183525050600282810180546040805160206001841615610100026000190190931694909404601f8101839004830285018301909152808452938101939083018282801561189f5780601f106118745761010080835404028352916020019161189f565b820191906000526020600020905b81548152906001019060200180831161188257829003601f168201915b50505050508152505081526020019060010190611747565b50505050905090565b600d602052600090815260409020805460018201546002830154600384015460049094015460ff9093169391926001600160a01b0391821692911685565b61190f611909611fce565b8361210f565b61192b5760405162461bcd60e51b81526004016107be90613390565b61097a848484846122e1565b6010818154811061194457fe5b9060005260206000209060030201600091509050806000015490806001018054600181600116156101000203166002900480601f0160208091040260200160405190810160405280929190818152602001828054600181600116156101000203166002900480156119f65780601f106119cb576101008083540402835291602001916119f6565b820191906000526020600020905b8154815290600101906020018083116119d957829003601f168201915b50505060028085018054604080516020601f6000196101006001871615020190941695909504928301859004850281018501909152818152959695945090925090830182828015611a885780601f10611a5d57610100808354040283529160200191611a88565b820191906000526020600020905b815481529060010190602001808311611a6b57829003601f168201915b5050505050905083565b6060611a9d82611fc1565b611ab95760405162461bcd60e51b81526004016107be90613300565b60008281526008602090815260409182902080548351601f6002600019610100600186161502019093169290920491820184900484028101840190945280845260609392830182828015611b4e5780601f10611b2357610100808354040283529160200191611b4e565b820191906000526020600020905b815481529060010190602001808311611b3157829003601f168201915b505060095493945050505060026000196101006001841615020190911604611b775790506106fc565b805115611ba957600981604051602001611b92929190612d2a565b6040516020818303038152906040529150506106fc565b6009611bb484612314565b604051602001611bc5929190612d2a565b604051602081830303815290604052915050919050565b33611be683610fb5565b6001600160a01b031614611bf957600080fd5b33611c02612971565b506000838152600e60209081526040918290208251608081018452815460ff161515815260018201549281019290925260028101546001600160a01b03169282019290925260039091015460608201819052611c5d57600080fd5b8281606001511015611c6e57600080fd5b611c7d33826040015186610d38565b6040518060a0016040528060001515815260200185815260200182604001516001600160a01b031681526020016000815260200160006001600160a01b0316815250600d600086815260200190815260200160002060008201518160000160006101000a81548160ff0219169083151502179055506020820151816001015560408201518160020160006101000a8154816001600160a01b0302191690836001600160a01b031602179055506060820151816003015560808201518160040160006101000a8154816001600160a01b0302191690836001600160a01b03160217905550905050600081606001519050604051806080016040528060001515815260200186815260200160006001600160a01b031681526020016000815250600e600087815260200190815260200160002060008201518160000160006101000a81548160ff0219169083151502179055506020820151816001015560408201518160020160006101000a8154816001600160a01b0302191690836001600160a01b031602179055506060820151816003015590505080600f6000856001600160a01b03166001600160a01b03168152602001908152602001600020600082825401925050819055507f6d62730e57ae25889beb253ef745a11bbf2a9be0e0ced29363056c456036b227858360600151858560400151604051611e82949392919061346b565b60405180910390a15050505050565b600e60205260009081526040902080546001820154600283015460039093015460ff9092169290916001600160a01b039091169084565b565b6001600160a01b03918216600090815260056020908152604080832093909416825291909152205460ff1690565b611f00611fce565b600a546001600160a01b03908116911614611f2d5760405162461bcd60e51b81526004016107be90613282565b6001600160a01b038116611f535760405162461bcd60e51b81526004016107be90612fd4565b600a546040516001600160a01b038084169216907f8be0079c531659141344cd1fd0a4f28419497f9722a3daafe3b4186f6b6457e090600090a3600a80546001600160a01b0319166001600160a01b0392909216919091179055565b600f6020526000908152604090205481565b6000610b596002836123ef565b3390565b600081815260046020526040902080546001600160a01b0319166001600160a01b038416908117909155819061200782610fb5565b6001600160a01b03167f8c5be1e5ebec7d5bd14f71427d1e84f3dd0314c0f7b2291e5b200ac8c7c3b92560405160405180910390a45050565b6000610b59826123fb565b6001600160a01b0382166120715760405162461bcd60e51b81526004016107be90613201565b61207a81611fc1565b156120975760405162461bcd60e51b81526004016107be9061301a565b6120a360008383610876565b6001600160a01b03821660009081526001602052604090206120c590826123ff565b506120d26002828461240b565b5060405181906001600160a01b038416906000907fddf252ad1be2c89b69c2b068fc378daa952ba7f163c4a11628f55a4df523b3ef908290a45050565b600061211a82611fc1565b6121365760405162461bcd60e51b81526004016107be906130cc565b600061214183610fb5565b9050806001600160a01b0316846001600160a01b0316148061217c5750836001600160a01b031661217184610797565b6001600160a01b0316145b8061218c575061218c8185611eca565b949350505050565b826001600160a01b03166121a782610fb5565b6001600160a01b0316146121cd5760405162461bcd60e51b81526004016107be906132b7565b6001600160a01b0382166121f35760405162461bcd60e51b81526004016107be90613051565b6121fe838383610876565b612209600082611fd2565b6001600160a01b038316600090815260016020526040902061222b9082612421565b506001600160a01b038216600090815260016020526040902061224e90826123ff565b5061225b6002828461240b565b5080826001600160a01b0316846001600160a01b03167fddf252ad1be2c89b69c2b068fc378daa952ba7f163c4a11628f55a4df523b3ef60405160405180910390a4505050565b6000610b56838361242d565b60008080806122bd8686612472565b9097909650945050505050565b60006122d78484846124ce565b90505b9392505050565b6122ec848484612194565b6122f88484848461252d565b61097a5760405162461bcd60e51b81526004016107be90612f82565b60608161233957506040805180820190915260018152600360fc1b60208201526106fc565b8160005b811561235157600101600a8204915061233d565b60608167ffffffffffffffff8111801561236a57600080fd5b506040519080825280601f01601f191660200182016040528015612395576020820181803683370190505b50859350905060001982015b83156123e657600a840660300160f81b828280600190039350815181106123c457fe5b60200101906001600160f81b031916908160001a905350600a840493506123a1565b50949350505050565b6000610b56838361260c565b5490565b6000610b568383612624565b60006122d784846001600160a01b03851661266e565b6000610b568383612705565b815460009082106124505760405162461bcd60e51b81526004016107be90612f40565b82600001828154811061245f57fe5b9060005260206000200154905092915050565b8154600090819083106124975760405162461bcd60e51b81526004016107be906131bf565b60008460000184815481106124a857fe5b906000526020600020906002020190508060000154816001015492509250509250929050565b600082815260018401602052604081205482816124fe5760405162461bcd60e51b81526004016107be9190612f2d565b5084600001600182038154811061251157fe5b9060005260206000209060020201600101549150509392505050565b6000612541846001600160a01b03166127cb565b61254d5750600161218c565b60606125d5630a85bd0160e11b612562611fce565b8887876040516024016125789493929190612dbf565b604051602081830303815290604052906001600160e01b0319166020820180516001600160e01b0383818316178352505050506040518060600160405280603281526020016134ed603291396001600160a01b0388169190612804565b90506000818060200190518101906125ed9190612bf4565b6001600160e01b031916630a85bd0160e11b1492505050949350505050565b60009081526001919091016020526040902054151590565b6000612630838361260c565b61266657508154600181810184556000848152602080822090930184905584548482528286019093526040902091909155610b59565b506000610b59565b6000828152600184016020526040812054806126d35750506040805180820182528381526020808201848152865460018181018955600089815284812095516002909302909501918255915190820155865486845281880190925292909120556122da565b828560000160018303815481106126e657fe5b90600052602060002090600202016001018190555060009150506122da565b600081815260018301602052604081205480156127c1578354600019808301919081019060009087908390811061273857fe5b906000526020600020015490508087600001848154811061275557fe5b60009182526020808320909101929092558281526001898101909252604090209084019055865487908061278557fe5b60019003818190600052602060002001600090559055866001016000878152602001908152602001600020600090556001945050505050610b59565b6000915050610b59565b6000813f7fc5d2460186f7233c927e7db2dcc703c0e500b653ca82273b7bfad8045d85a47081811480159061218c575050151592915050565b60606122d784846000856060612819856127cb565b6128355760405162461bcd60e51b81526004016107be906133e1565b60006060866001600160a01b031685876040516128529190612d0e565b60006040518083038185875af1925050503d806000811461288f576040519150601f19603f3d011682016040523d82523d6000602084013e612894565b606091505b509150915081156128a857915061218c9050565b8051156128b85780518082602001fd5b8360405162461bcd60e51b81526004016107be9190612f2d565b60405180606001604052806000815260200160608152602001606081525090565b828054600181600116156101000203166002900490600052602060002090601f016020900481019282601f1061293457805160ff1916838001178555612961565b82800160010185558215612961579182015b82811115612961578251825591602001919060010190612946565b5061296d9291506129d2565b5090565b60405180608001604052806000151581526020016000815260200160006001600160a01b03168152602001600081525090565b6040805160a08101825260008082526020820181905291810182905260608101829052608081019190915290565b5b8082111561296d57600081556001016129d3565b80356001600160a01b0381168114610b5957600080fd5b600082601f830112612a0e578081fd5b813567ffffffffffffffff80821115612a25578283fd5b604051601f8301601f191681016020018281118282101715612a45578485fd5b604052828152925082848301602001861015612a6057600080fd5b8260208601602083013760006020848301015250505092915050565b600060208284031215612a8d578081fd5b610b5683836129e7565b60008060408385031215612aa9578081fd5b612ab384846129e7565b9150612ac284602085016129e7565b90509250929050565b600080600060608486031215612adf578081fd5b8335612aea816134be565b92506020840135612afa816134be565b929592945050506040919091013590565b60008060008060808587031215612b20578081fd5b612b2a86866129e7565b9350612b3986602087016129e7565b925060408501359150606085013567ffffffffffffffff811115612b5b578182fd5b612b67878288016129fe565b91505092959194509250565b60008060408385031215612b85578182fd5b612b8f84846129e7565b915060208301358015158114612ba3578182fd5b809150509250929050565b60008060408385031215612bc0578182fd5b612bca84846129e7565b946020939093013593505050565b600060208284031215612be9578081fd5b81356122da816134d6565b600060208284031215612c05578081fd5b81516122da816134d6565b60008060408385031215612c22578182fd5b823567ffffffffffffffff80821115612c39578384fd5b612c45868387016129fe565b93506020850135915080821115612c5a578283fd5b50612c67858286016129fe565b9150509250929050565b600060208284031215612c82578081fd5b5035919050565b60008060408385031215612c9b578182fd5b50508035926020909101359150565b600080600060608486031215612cbe578283fd5b83359250602084013591506040840135612cd7816134be565b809150509250925092565b60008151808452612cfa816020860160208601613492565b601f01601f19169290920160200192915050565b60008251612d20818460208701613492565b9190910192915050565b6000808454600180821660008114612d495760018114612d6057612d8f565b60ff198316865260028304607f1686019350612d8f565b600283048886526020808720875b83811015612d875781548a820152908501908201612d6e565b505050860193505b5050508351612da2818360208801613492565b01949350505050565b6001600160a01b0391909116815260200190565b6001600160a01b0385811682528416602082015260408101839052608060608201819052600090612df290830184612ce2565b9695505050505050565b60208082528251828201819052600091906040908185019080840286018301878501865b83811015612e7c57603f19898403018552815160608151855288820151818a870152612e4e82870182612ce2565b91505087820151915084810388860152612e688183612ce2565b968901969450505090860190600101612e20565b509098975050505050505050565b6020808252825182820181905260009190848201906040850190845b81811015612ec257835183529284019291840191600101612ea6565b50909695505050505050565b901515815260200190565b931515845260208401929092526001600160a01b03166040830152606082015260800190565b941515855260208501939093526001600160a01b039182166040850152606084015216608082015260a00190565b600060208252610b566020830184612ce2565b60208082526022908201527f456e756d657261626c655365743a20696e646578206f7574206f6620626f756e604082015261647360f01b606082015260800190565b60208082526032908201527f4552433732313a207472616e7366657220746f206e6f6e20455243373231526560408201527131b2b4bb32b91034b6b83632b6b2b73a32b960711b606082015260800190565b60208082526026908201527f4f776e61626c653a206e6577206f776e657220697320746865207a65726f206160408201526564647265737360d01b606082015260800190565b6020808252601c908201527f4552433732313a20746f6b656e20616c7265616479206d696e74656400000000604082015260600190565b60208082526024908201527f4552433732313a207472616e7366657220746f20746865207a65726f206164646040820152637265737360e01b606082015260800190565b60208082526019908201527f4552433732313a20617070726f766520746f2063616c6c657200000000000000604082015260600190565b6020808252602c908201527f4552433732313a206f70657261746f7220717565727920666f72206e6f6e657860408201526b34b9ba32b73a103a37b5b2b760a11b606082015260800190565b60208082526038908201527f4552433732313a20617070726f76652063616c6c6572206973206e6f74206f7760408201527f6e6572206e6f7220617070726f76656420666f7220616c6c0000000000000000606082015260800190565b6020808252602a908201527f4552433732313a2062616c616e636520717565727920666f7220746865207a65604082015269726f206164647265737360b01b606082015260800190565b60208082526022908201527f456e756d657261626c654d61703a20696e646578206f7574206f6620626f756e604082015261647360f01b606082015260800190565b6020808252818101527f4552433732313a206d696e7420746f20746865207a65726f2061646472657373604082015260600190565b6020808252602c908201527f4552433732313a20617070726f76656420717565727920666f72206e6f6e657860408201526b34b9ba32b73a103a37b5b2b760a11b606082015260800190565b6020808252818101527f4f776e61626c653a2063616c6c6572206973206e6f7420746865206f776e6572604082015260600190565b60208082526029908201527f4552433732313a207472616e73666572206f6620746f6b656e2074686174206960408201526839903737ba1037bbb760b91b606082015260800190565b6020808252602f908201527f4552433732314d657461646174613a2055524920717565727920666f72206e6f60408201526e3732bc34b9ba32b73a103a37b5b2b760891b606082015260800190565b60208082526021908201527f4552433732313a20617070726f76616c20746f2063757272656e74206f776e656040820152603960f91b606082015260800190565b60208082526031908201527f4552433732313a207472616e736665722063616c6c6572206973206e6f74206f6040820152701ddb995c881b9bdc88185c1c1c9bdd9959607a1b606082015260800190565b6020808252601d908201527f416464726573733a2063616c6c20746f206e6f6e2d636f6e7472616374000000604082015260600190565b90815260200190565b60008482526060602083015261343a6060830185612ce2565b8281036040840152612df28185612ce2565b92835260208301919091526001600160a01b0316604082015260600190565b93845260208401929092526001600160a01b03908116604084015216606082015260800190565b60005b838110156134ad578181015183820152602001613495565b8381111561097a5750506000910152565b6001600160a01b03811681146134d357600080fd5b50565b6001600160e01b0319811681146134d357600080fdfe4552433732313a207472616e7366657220746f206e6f6e20455243373231526563656976657220696d706c656d656e7465724552433732313a206f776e657220717565727920666f72206e6f6e6578697374656e7420746f6b656ea2646970667358221220080b4b2e1e43ab95d40f0f84ffff3e2adf37106926022be1caf713e56746e63564736f6c63430007000033",
  "immutableReferences": {},
  "source": "// SPDX-License-Identifier: MIT\npragma solidity >=0.7.0 <0.9.0;\npragma experimental ABIEncoderV2;\nimport \"@openzeppelin/contracts/token/ERC721/ERC721.sol\";\nimport \"@openzeppelin/contracts/access/Ownable.sol\";\ncontract NFTBasicV1 is ERC721,Ownable {\n    \n  mapping (uint256 => address) internal tokenOwner;\n  uint constant minimumPrice = 0.01 ether;\n  address contractOwner;\n  constructor() public ERC721(\"Coinasty\", \"CNSTY\"){contractOwner = msg.sender;}\n\n  struct Coin {\n    uint coinIndex;\n    string nameOfCoin;\n    string ipfsHash;\n  }\n  \n  struct Bid {\n        bool hasBid;\n        uint coinIndex;\n        address bidder;\n        uint value;\n    }\n  \n  struct Offer {\n        bool isForSale;\n        uint coinIndex;\n        address seller;\n        uint minValue;          // in ether\n        address onlySellTo;     // specify to sell only to a specific person\n    }\n    \n    mapping (uint => Offer) public coinsOfferedForSale;\n    mapping (uint => Bid) public coinBids;\n    mapping (address => uint) public pendingWithdrawals;\n    Coin[] public coins;\n    \n    event CoinOffered(uint coinIndex, uint minPrice, address toAddress);\n    event CoinNoMoreForSale(uint coinIndex);\n    event CoinBidEntered(uint coinIndex, uint value, address fromAddress);\n    event CoinBought(uint  coinIndex, uint value, address fromAddress, address toAddress);\n    event CoinBidWithdrawn(uint coinIndex, uint value, address fromAddress);  \n  \n  function preMint(string memory _nameOfCoin,string memory _ipfsHash)public{\n      require (msg.sender==contractOwner);\n      uint _coinId = coins.length;\n        Coin memory _coin= Coin({ coinIndex:_coinId, nameOfCoin: _nameOfCoin ,ipfsHash: _ipfsHash});\n        coins.push(_coin);\n        _mint(msg.sender, _coinId);\n        offerCoinForSale(_coinId, minimumPrice);\n  }\n  \n  \n  function mint(uint _coinId) private {\n    _mint(msg.sender, _coinId);\n        \n  }\n  \n  function BuyNewCoin() public payable{\n      //todo\n  }\n  \n  \n  function CoinNoLongerForSale(uint _coinIndex) public{\n      if (ownerOf(_coinIndex) != msg.sender) revert();\n      coinsOfferedForSale[_coinIndex] = Offer({ isForSale: false, coinIndex: _coinIndex , seller: msg.sender, minValue: 0, onlySellTo: address(0)});\n      CoinNoMoreForSale(_coinIndex);\n      \n  }\n  \n  function offerCoinForSale(uint _coinIndex, uint minSalePriceInWei) public{\n      if (ownerOf(_coinIndex) != msg.sender) revert();\n      coinsOfferedForSale[_coinIndex] = Offer({ isForSale: true, coinIndex: _coinIndex , seller: msg.sender, minValue: minSalePriceInWei, onlySellTo: address(0)});\n      CoinOffered(_coinIndex, minSalePriceInWei, address(0));\n      \n  }\n  \n  function offerCoinForSaleToAddress(uint _coinIndex, uint minSalePriceInWei,address toAddress) public{\n      if (ownerOf(_coinIndex) != msg.sender) revert();\n      coinsOfferedForSale[_coinIndex] = Offer({ isForSale: true, coinIndex: _coinIndex , seller: msg.sender, minValue: minSalePriceInWei, onlySellTo: toAddress});\n      CoinOffered(_coinIndex, minSalePriceInWei, toAddress);\n      \n  }\n  \n  \n  function buyCoin(uint _coinIndex) public payable{\n        Offer memory offer = coinsOfferedForSale[_coinIndex];\n        if (!offer.isForSale) revert();                // coin not actually for sale\n        if (offer.onlySellTo != address(0) && offer.onlySellTo != msg.sender) revert();  // coin not supposed to be sold to this user\n        if (msg.value < offer.minValue) revert();      // Didn't send enough ETH\n        if (offer.seller != ownerOf(_coinIndex)) revert();\n\n        address seller = offer.seller;\n\n        _transfer(seller,msg.sender,_coinIndex);\n        CoinNoLongerForSale(_coinIndex);\n        pendingWithdrawals[seller] += msg.value;\n\n        // Check for the case where there is a bid from the new owner and refund it.\n        // Any other bid can stay in place.\n        Bid memory bid = coinBids[_coinIndex];\n        if (bid.bidder == msg.sender) {\n            // Kill bid and refund value\n            pendingWithdrawals[msg.sender] += bid.value;\n            coinBids[_coinIndex] = Bid(false, _coinIndex, address(0), 0);\n        }\n  }\n  \n  function transferCoin(address to, uint _coinIndex) public{\n        if (ownerOf(_coinIndex) != msg.sender) revert();                // coin not actually for sale\n        if (coinsOfferedForSale[_coinIndex].isForSale) {\n            CoinNoLongerForSale(_coinIndex);\n        }\n        \n        safeTransferFrom(msg.sender, to, _coinIndex);\n\n        // Check for the case where there is a bid from the new owner and refund it.\n        // Any other bid can stay in place.\n        Bid memory bid = coinBids[_coinIndex];\n        if (bid.bidder == to) {\n            // Kill bid and refund value\n            pendingWithdrawals[msg.sender] += bid.value;\n            coinBids[_coinIndex] = Bid(false, _coinIndex, address(0), 0);\n        }\n  }\n  function withdraw() public{\n        uint amount = pendingWithdrawals[msg.sender];\n        // Remember to zero the pending refund before\n        // sending to prevent re-entrancy attacks\n        pendingWithdrawals[msg.sender] = 0;\n        msg.sender.transfer(amount);\n    }\n  function enterBidForCoin(uint _coinIndex) public payable {\n        if (ownerOf(_coinIndex) == address(0)) revert();\n        if (ownerOf(_coinIndex) == msg.sender) revert();\n        if (msg.value == 0) revert();\n        Bid memory existing = coinBids[_coinIndex];\n        if (msg.value <= existing.value) revert();\n        if (existing.value > 0) {\n            // Refund the failing bid\n            pendingWithdrawals[existing.bidder] += existing.value;\n        }\n        coinBids[_coinIndex] = Bid(true, _coinIndex, msg.sender, msg.value);\n        CoinBidEntered(_coinIndex, msg.value, msg.sender);\n    }\n    \n    function acceptBidForCoin(uint _coinIndex, uint minPrice) public{\n               \n        if (ownerOf(_coinIndex) != msg.sender) revert();\n        address seller = msg.sender;\n        Bid memory bid = coinBids[_coinIndex];\n        if (bid.value == 0) revert();\n        if (bid.value < minPrice) revert();\n        \n        safeTransferFrom(msg.sender, bid.bidder, _coinIndex);\n\n        coinsOfferedForSale[_coinIndex] = Offer(false, _coinIndex, bid.bidder, 0, address(0));\n        uint amount = bid.value;\n        coinBids[_coinIndex] = Bid(false, _coinIndex, address(0), 0);\n        pendingWithdrawals[seller] += amount;\n        CoinBought(_coinIndex, bid.value, seller, bid.bidder);\n    }\n\n    function withdrawBidForCoin(uint _coinIndex) public{\n        if (ownerOf(_coinIndex) == address(0)) revert();\n        if (ownerOf(_coinIndex) == msg.sender) revert();\n        Bid memory bid = coinBids[_coinIndex];\n        if (bid.bidder != msg.sender) revert();\n        CoinBidWithdrawn(_coinIndex, bid.value, msg.sender);\n        uint amount = bid.value;\n        coinBids[_coinIndex] = Bid(false, _coinIndex, address(0), 0);\n        // Refund the bid money\n        msg.sender.transfer(amount);\n    }\n\n    function getCoinsByAddress(address _user) public view returns (uint256[] memory) {\n        uint balanceOfUser;\n        \n        balanceOfUser= balanceOf(_user);\n        \n        uint [] memory allCoinsByUser = new uint[](balanceOfUser);\n        for (uint i=0; i<balanceOfUser;i++){\n            uint coinIndex;\n            coinIndex=tokenOfOwnerByIndex(_user,i);\n            allCoinsByUser[i]=coinIndex;\n        }\n        return allCoinsByUser;\n        \n    }\n        \n    function getAllCoinsOnSale() public view returns (uint256[] memory) {\n        uint totToken;\n        totToken= totalSupply();\n        \n        uint [] memory allCoinsOnSale = new uint[](totToken);\n        for (uint i=0; i<totToken;i++){\n            if (coinsOfferedForSale[i].isForSale == true) allCoinsOnSale[i]=coinsOfferedForSale[i].coinIndex;\n             }\n        return allCoinsOnSale;\n \n    }\n    \n    function getAllCoins() public view returns (Coin[] memory _coins) {\n        return coins;\n    }\n    \n}",
  "sourcePath": "/Users/giorgiopietramala/Documents/GitHub/NFTMarketplace-g/contracts/NFTBasicV1.sol",
  "compiler": {
    "name": "solc",
    "version": "0.7.0+commit.9e61f92b.Emscripten.clang"
  },
  "schemaVersion": "3.3.4",
  "updatedAt": "2021-07-14T21:15:05.661Z",
  "networkType": "ethereum",
  "devdoc": {
    "kind": "dev",
    "methods": {
      "approve(address,uint256)": {
        "details": "See {IERC721-approve}."
      },
      "balanceOf(address)": {
        "details": "See {IERC721-balanceOf}."
      },
      "baseURI()": {
        "details": "Returns the base URI set via {_setBaseURI}. This will be automatically added as a prefix in {tokenURI} to each token's URI, or to the token ID if no specific URI is set for that token ID."
      },
      "getApproved(uint256)": {
        "details": "See {IERC721-getApproved}."
      },
      "isApprovedForAll(address,address)": {
        "details": "See {IERC721-isApprovedForAll}."
      },
      "name()": {
        "details": "See {IERC721Metadata-name}."
      },
      "owner()": {
        "details": "Returns the address of the current owner."
      },
      "ownerOf(uint256)": {
        "details": "See {IERC721-ownerOf}."
      },
      "renounceOwnership()": {
        "details": "Leaves the contract without owner. It will not be possible to call `onlyOwner` functions anymore. Can only be called by the current owner. NOTE: Renouncing ownership will leave the contract without an owner, thereby removing any functionality that is only available to the owner."
      },
      "safeTransferFrom(address,address,uint256)": {
        "details": "See {IERC721-safeTransferFrom}."
      },
      "safeTransferFrom(address,address,uint256,bytes)": {
        "details": "See {IERC721-safeTransferFrom}."
      },
      "setApprovalForAll(address,bool)": {
        "details": "See {IERC721-setApprovalForAll}."
      },
      "supportsInterface(bytes4)": {
        "details": "See {IERC165-supportsInterface}. Time complexity O(1), guaranteed to always use less than 30 000 gas."
      },
      "symbol()": {
        "details": "See {IERC721Metadata-symbol}."
      },
      "tokenByIndex(uint256)": {
        "details": "See {IERC721Enumerable-tokenByIndex}."
      },
      "tokenOfOwnerByIndex(address,uint256)": {
        "details": "See {IERC721Enumerable-tokenOfOwnerByIndex}."
      },
      "tokenURI(uint256)": {
        "details": "See {IERC721Metadata-tokenURI}."
      },
      "totalSupply()": {
        "details": "See {IERC721Enumerable-totalSupply}."
      },
      "transferFrom(address,address,uint256)": {
        "details": "See {IERC721-transferFrom}."
      },
      "transferOwnership(address)": {
        "details": "Transfers ownership of the contract to a new account (`newOwner`). Can only be called by the current owner."
      }
    },
    "version": 1
  },
  "userdoc": {
    "kind": "user",
    "methods": {},
    "version": 1
  }
}